:020000040800F2
:10000000C0060020010100087B0F0008810E0008D7
:10001000790F0008910100085F120008000000003D
:100020000000000000000000000000007F0F00083A
:1000300093010008000000007D0F0008810F0008F8
:100040001B0100081B0100081B0100081B01000820
:100050001B0100081B0100081B0100081B01000810
:100060001B0100081B0100081B0100081B01000800
:100070001B0100081B0100081B0100081B010008F0
:100080001B0100081B0100081B0100081B010008E0
:100090001B0100081B0100081B0100081B010008D0
:1000A0001B0100081B0100081B0100081B010008C0
:1000B0001B0100081B0100081B0100081B010008B0
:1000C0001B0100081B0100081B0100081B010008A0
:1000D0001B0100080D1200081B0100081B0100088D
:1000E0001B0100081B0100081B010008DFF80CD0F1
:1000F00000F03CF800480047A1120008C0060020AC
:100100000648804706480047FEE7FEE7FEE7FEE7B1
:10011000FEE7FEE7FEE7FEE7FEE7FEE7E50F000885
:10012000ED00000840EA01039B0703D009E008C97D
:10013000121F08C0042AFAD203E011F8013B00F8AC
:10014000013B521EF9D27047D2B201E000F8012BF8
:10015000491EFBD270470022F6E710B513460A4647
:1001600004461946FFF7F0FF204610BD064C074D28
:1001700006E0E06840F0010394E807009847103477
:10018000AC42F6D3FFF7B6FFF812000818130008C8
:10019000FEE770477047000010B590F8211000246A
:1001A000022903D00421816301243DE001680A682B
:1001B00022F00E020A6001680A6822F001020A6059
:1001C0001A4A0168914201D1012121E0174A1432F3
:1001D000914201D110211BE0144A2832914201D1F1
:1001E000891515E0114A3C32914201D189140FE082
:1001F0000E4A5032914202D14FF4803108E00B4A4E
:100200006432914202D14FF4801101E04FF08071CD
:10021000064A083A5160012180F82110002180F837
:100220002010416B01B18847204610BD08000240F4
:1002300070B5044600F004F90546601C02D004487D
:100240000078044400F0FCF8401BA042FAD370BDD3
:10025000000000202DE9F84FDFF8B891002409F1E3
:10026000040A0AF1040B23460F270BF1040EC9E020
:100270000125A5402A40AA427DD1674ED1F804C08D
:10028000ACEB0608B44532D014DCBCF1030F3AD015
:1002900009DCBCF1000F2AD0BCF1010F1CD0BCF16D
:1002A000020F31D11DE0BCF1110F17D0BCF1120FBC
:1002B0002AD119E0B8F5881F19D006DCB8F5803FBF
:1002C00015D0B8F5801F1FD111E0B8F5001F0ED072
:1002D000B8F5041F18D10AE0CB6815E0CB681B1DE8
:1002E00012E0CB6808330FE0CB680C330CE08B686E
:1002F0002BB1012B4FF0080303D0456104E0042328
:1003000002E0056100E00023FF2A01D8064601E073
:1003100000F104064FEA840501D9A5F12005D6F8BD
:10032000008007FA05FC28EA0C0803FA05F548EAFC
:100330000508C6F800804D68ED0062D5374DAE69FE
:1003400046F00106AE61AD6924F0030605F0010533
:100350000095334D06EB050CDCF80850A607360F68
:1003600007FA06F825EA0805DFF8B880404503D10A
:100370004FF0000817E044E0DFF8AC80404502D1C0
:100380004FF001080FE0DFF8A480404502D14FF0A4
:10039000020808E0DFF89880404502D14FF00308DA
:1003A00001E04FF0040808FA06F848EA0508CCF81E
:1003B00008804D68D9F80060ED034D4601D516431D
:1003C00000E096432E604D68DAF80060AD035546B4
:1003D00001D5164300E096432E604D68DBF80060BF
:1003E000ED025D4601D5164300E096432E604D6850
:1003F000DEF80060AD02754601D5164300E0964375
:100400002E60641C0D682A46E5407FF431AFBDE8DC
:10041000F88F00000004014000001110001002409D
:100420000000014000080140000C014000100140A4
:10043000001401400AB1016170470904FBE70000A4
:100440000148806870470000000000200248816871
:10045000027811448160704700000020074810B501
:10046000016841F010010160032000F075F80020E0
:1004700000F006F800F024F8002010BD0020024033
:1004800070B50D4D04464FF47A712878B1FBF0F049
:100490000A490968B1FBF0F000F0E0FB48B9102C04
:1004A00007D200222146501E00F036F800206C6072
:1004B00070BD012070BD0000000000200C00002075
:1004C0000C4808B5816941F001018161816901F041
:1004D00001010091C16941F08051C161C06900F022
:1004E000805000900448416821F0E06141F00071C3
:1004F000416008BD0010024000000140002809DBF7
:1005000000F01F02012191404009800000F1E0202D
:10051000C0F8001170470000F0B40E4B1B680C4689
:10052000C3F30223C3F10705042D00D90425191DC7
:10053000072901D2002300E0DB1E012606FA05F19F
:10054000491E214099409E40761E16403143F0BC22
:1005500000F086BE0CED00E0064900F007020868D6
:100560004FF6FF03184040EA0220034A1043086098
:10057000704700000CED00E00000FA052DE9F041A5
:1005800086B0040004D094F82902002520B108E0C8
:10059000012006B0BDE8F08184F82852204600F022
:1005A00057F8032084F82902206800F048FE04F17F
:1005B0001001142288466846FFF7B4FD94E80F0046
:1005C00000F02AFE0227B0BB0021206800F045FEA3
:1005D000002001260DE000BF04EB401181F82960E6
:1005E00001F8280FC881CD700D614D61401CC0B26B
:1005F0008D6161688142EFD800200FE004EB40116B
:1006000081F8295181F8280181F82B51C1F838511E
:10061000C1F83C51401CC0B2C1F8405161688142F0
:10062000ECD8142241466846FFF77CFD94E80F00A1
:1006300000F0F6FD10B184F82972A9E784F824507F
:1006400084F82962206800F0E9FD0020A1E700009D
:1006500008B500680649884208D10648C16941F4D6
:100660000001C161C06900F40000009008BD0000F5
:10067000005C0040001002402DE9F8430546007878
:10068000354CC00754D0E0690026C00008D4E069AA
:1006900040F08050E061E069012600F08050009059
:1006A0002E480168C90512D40168804641F4807162
:1006B0000160FFF7C5FE074605E000BFFFF7C0FE7B
:1006C000C01B642823D8D8F80000C005F6D5206ADE
:1006D00010F4407021D0A98801F4407181421CD0EF
:1006E000206A1F49012220F440700A6000220A603B
:1006F0002062C00711D0FFF7A3FE074641F28838F9
:1007000008E000BFFFF79CFEC11B414502D9032052
:10071000BDE8F883206A8007F4D5206A696820F470
:100720004070084320621EB1E06920F08050E06113
:100730002878800705D56068A96820F44040084300
:1007400060602878C00605D56068E96820F48000FC
:10075000084360600020DBE70010024000700040AA
:10076000400442422DE9F0470F46050061D0434E58
:10077000306800F00700B84209D2306820F0070066
:1007800038433060306800F00700B84251D1286823
:100790003B4C810712D5400703D5606840F4E06008
:1007A00060602878000703D5606840F4605060609E
:1007B0006068A96820F0F000084360602878C007EE
:1007C00028D06868012810D02168022810D0890735
:1007D00000292EDA616821F0030101436160FFF70F
:1007E0002FFE804641F288390DE021688903EFE74A
:1007F0008901EDE7FFF724FEA0EB0801494502D986
:100800000320BDE8F0876068696800F00C00B0EB79
:10081000810FEFD1306800F00700B8420BD9306883
:1008200020F0070038433060306800F00700B8421D
:1008300001D00120E5E72878400705D56068E96820
:1008400020F4E060084360602878000706D56068FF
:10085000296920F4605040EAC100606000F038F877
:100860006168084AC1F30311515CC8400649086039
:1008700006480068FFF704FE0020C2E7002002409F
:1008800000100240E01200080C00002004000020CC
:100890000448054900684968044AC1F30221515CD3
:1008A000C84070470C00002000100240F012000801
:1008B0000448054900684968044AC1F3C221515CF3
:1008C000C84070470C00002000100240F0120008E1
:1008D00012A185B00FC98DE80F0014A0144A00685A
:1008E00004905168134801F00C03042B10D0082B1E
:1008F0000ED1C1F38343C9031DF803000AD5516823
:1009000004AAC1F34041515C0A4A5043B0FBF1F0E4
:1009100005B0704708494843FAE7000002030405A0
:10092000060708090A0B0C0D0E0F1010010200003B
:100930000010024000127A0000093D002DE9F84F36
:10094000040070D02078C04DC00749D06868C0F35B
:100950008100012807D06868C0F38100022809D10E
:100960006868C00306D52868800339D56068002808
:10097000E7D035E06068B0F5803F0BD010B1B0F53E
:10098000A02F11D0286820F480302860286820F437
:10099000802002E0286840F480302860606890B1D0
:1009A000FFF74EFD06460AE0286840F480202860E4
:1009B000F0E700BFFFF744FD801B642873D8286868
:1009C0008003F7D50CE0FFF73BFD064605E000BFCE
:1009D000FFF736FD801B6428F0D828688003F7D421
:1009E00020789A4E80074FF001094FF0000839D562
:1009F000686810F00C0F07D06868C0F38100022807
:100A000009D16868C00306D42868800714D5206916
:100A1000012808D110E02069B0B1C6F80090FFF7B6
:100A20000FFD074605E00AE1FFF70AFDC01B02289B
:100A3000C4D828688007F7D52868616920F0F800D5
:100A400040EAC10028600DE0C6F80080FFF7F8FC1E
:100A5000074604E0FFF7F4FCC01B022823D82868EF
:100A60008007F7D4207800072CD57948A169D9B13F
:100A7000C0F80090FFF7E4FC074604E0FFF7E0FC55
:100A8000C01B02280FD8686A8007F7D571484FF459
:100A9000FA510068B0FBF1F0009000BF0098411ED1
:100AA0000091FAD20EE080E0C0F80080FFF7C8FCA9
:100AB000074604E0FFF7C4FCC01B022875D8686A2B
:100AC0008007F7D42078400760D5E8690027C00088
:100AD00008D4E86940F08050E861E869012700F037
:100AE000805000905C480168C90513D401688346B2
:100AF00041F480710160FFF7A3FC824606E000BF6D
:100B0000FFF79EFCA0EB0A0064284ED8DBF800003B
:100B1000C005F5D5E06801280AD008B1052813D032
:100B2000286A20F001002862286A20F0040002E010
:100B3000286A40F001002862E06841F2883B98B1E1
:100B4000FFF77EFC82460BE0286A40F00400286232
:100B5000EEE700BFFFF774FCA0EB0A0159455AD835
:100B6000286A8007F6D50CE0FFF76AFC824605E0AC
:100B7000FFF766FCA0EB0A0159454CD8286A8007AC
:100B8000F6D41FB1E86920F08050E861E06988B3CD
:100B90006968C1F38101022944D00228C6F8608047
:100BA00004D0FFF74DFC044638E034E0FFF748FC82
:100BB000074604E0FFF744FCC01B02282BD8286836
:100BC0008001F7D4206AB0F5803F05D16868A1683C
:100BD00020F4003008436860D4E9080108436968DC
:100BE00021F4741108436860C6F86090FFF728FC90
:100BF000044606E025E000BFFFF722FC001B0228A8
:100C000009D828688001F7D51BE000BFFFF718FC62
:100C1000001B022802D90320BDE8F88F2868800154
:100C2000F4D40EE00128F7D06868226A00F480311D
:100C3000914204D1616A00F47010884201D0012011
:100C4000EAE70020E8E7000000100240000042420E
:100C5000800442420C0000200070004010B5401E8D
:100C6000B0F1807F01D3012010BD4FF0E02460611E
:100C70000F21601700F0F4FA0020A0610720206126
:100C8000002010BD7047000070B50268044610686F
:100C9000D168536910F00F0F50D003F0010501F433
:100CA000907635435DD0C20705D0CA0503D5E26B07
:100CB00042F00102E263420705D5DA0703D0E26B96
:100CC00042F00202E263820705D5DA0703D0E26B45
:100CD00042F00402E263020705D5DA0703D0E26BB3
:100CE00042F00802E263E26B002A33D0800604D5AA
:100CF000880602D5204600F0AFF920684069E16B14
:100D0000C0F38010090700D428B3204600F096F9FC
:100D10002068416949061AD5416921F040014161C5
:100D2000606BA0B11B494163606BFFF735FA002887
:100D300010D0606B416BBDE870400847830610D54A
:100D40008B060ED52046BDE8704000F085B92046E0
:100D5000FFF798FF70BD2046FFF794FF0020E06387
:100D600070BD030606D50B0604D52046BDE87040CD
:100D700000F01ABA4006F3D54806F1D5D1682046EE
:100D800021F04001D160202184F8391000F077F87B
:100D900070BD00002D10000870B5040004D094F858
:100DA0003900002510B106E0012070BD84F83850EC
:100DB000204600F023F8242084F839002068C16818
:100DC00021F40051C160204600F092F920680169C9
:100DD00021F4904101612068416921F02A014161BB
:100DE0002068C16841F40051C160E563202084F8A7
:100DF000390084F83A00002070BD000030B585B09D
:100E000000240094019402940394006818498842D5
:100E10002CD11848816941F480418161816901F4D4
:100E200080410491816941F0040181618069124D22
:100E300000F0040004904FF4007000900220019034
:100E40000320039069462846FFF704FA2815CDE9E8
:100E50000004694628460294FFF7FCF90022114677
:100E60002520FFF759FB2520FFF748FB05B030BDD3
:100E700000380140001002400008014070477047F0
:100E8000FEE7000030B585B000241C4800940194B2
:100E900002940394816941F010018161816901F03C
:100EA00010010491816941F020018161816901F0A3
:100EB00020010491816941F0040181618069104D34
:100EC00000F004000490002204212846FFF7B2FA43
:100ED000681400900B48CDE9010469460A48FFF701
:100EE000B9F9042000900120CDE90104022003900B
:100EF00069462846FFF7AEF905B030BD0010024044
:100F00000008014000001110001001400C4810B50D
:100F10000A4901604FF416514160002181600C22A2
:100F2000C160C0E904128161C161FFF735FF00288B
:100F300003D0BDE81040FFF72DB910BD00380140C7
:100F4000100000200B4810B50949016008214160DC
:100F50000221816000218161C1610162FFF70EFB06
:100F6000002803D0BDE81040FFF714B910BD000001
:100F7000005C004050000020FEE77047704770475B
:100F8000FFF764BA30B593B028216846FFF7E3F85D
:100F900014210AA8FFF7DFF8002401200F94109411
:100FA0001194010412948DE8130004904FF4E010A2
:100FB000CDE90810022507956846FFF7BFFC0F2012
:100FC000CDE90A056802CDE90C4002210AA80E9479
:100FD000FFF7C8FB10200F9012940FA8FFF74CFBEF
:100FE00013B030BD0D48016841F001010160416856
:100FF0000B4A1140416001680A4A114001600168D2
:1010000021F480210160416821F4FE0141604FF428
:101010001F0181600449C00308607047001002404E
:101020000000FFF8FFFFF6FE08ED00E010B5406A93
:101030000021C185C184FFF725FE10BD0168CA6883
:1010400022F49072CA6001684A6922F001024A6182
:10105000202180F83A10704710B590F83A102229F4
:1010600001D0022010BD8168B1F5805F11D0016907
:10107000002901681FD0496801F07F03816A4A1C7A
:1010800082620B70C18D491E0904090CC18518D0FC
:101090002BE00269816A002A0268526805D0D2B248
:1010A0000A80816A491C8162ECE7C2F308020A8067
:1010B000816A891CF7E74A68816A4B1C83620A705F
:1010C000E0E70168CA6822F02002CA600168CA68C5
:1010D00022F48072CA6001684A6922F001024A6102
:1010E000202180F83A10FFF7C9FE002010BD000053
:1010F0002DE9F041044600680169E26821F440519D
:10110000114301612169A0680843616908432168AE
:10111000CA6841F20C639A430243CA60206841697D
:10112000A26921F44071114341611E492068642580
:101130003226884202D1FFF7BBFB01E0FFF7A8FB94
:1011400000EBC00101EB001160686FF01807800030
:10115000B1FBF0F2B2FBF5F2B1FBF0F37A4303EB33
:101160008202B1FBF0F306EB0212B2FBF5F2B3FB25
:10117000F5F302F0F00202EB0312B1FBF0F3B1FB66
:10118000F0F0B0FBF5F0784303EB800006EB0010C5
:10119000B0FBF5F0216800F00F0010448860BDE856
:1011A000F08100000038014090F83910212901D069
:1011B000022070478168B1F5805F016A0BD04A1C3C
:1011C0000262026809785160C18C491E0904090C49
:1011D000C1840ED017E009880268C1F3080151608C
:1011E00001690029016A02D0491C0162ECE7891CEF
:1011F000FBE70168CA6822F08002CA600068C16823
:1012000041F04001C1600020704700000148FFF735
:101210003BBD0000100000200020704700207047F8
:1012200000B50121A0F840100021A0F84010A0F85E
:101230004410A0F8501000F009F8002000BD30F86C
:10124000401F21F43F4101800020704730F8401FCB
:1012500041F43F4101800020704700207047FEE7C5
:101260000907090E002804DB00F1E02080F80014D3
:10127000704700F00F0000F1E02080F8141D704767
:1012800002E008C8121F08C1002AFAD1704770474F
:10129000002001E001C1121F002AFBD170470000AD
:1012A000FFF7DCF8FFF76EFEFFF7ECFDFFF72EFE11
:1012B000FFF748FE094D4FF47A74012204212846B5
:1012C000FFF7B8F82046FEF7B3FF002204212846B6
:1012D000FFF7B0F82046FEF7ABFFEEE7000801404D
:1012E00000000000000000000102030406070809D6
:1012F0000000000001020304181300080000002091
:1013000010000000801200082813000810000020C0
:10131000B00600009012000801000000100000005C
:08132000000000000024F400AD
:04000005080000ED02
:00000001FF
