:080003003A28391135243612A8
:0A022600EF1F70011E144E70F72246
:1000DC007511037512E8438901AE11AF12AB07AA73
:1000EC0006E4C39BFFE49AFE74019400FDE49400C3
:1000FC00FCE4FB7A01F9F81201D68F8CAE11AF1229
:10010C00AB07AA06E4C39BFFE49AFE74019400FDBE
:10011C00E49400FCE4FB7A01F9F81201D6AF038FEA
:10012C008A75A882D28C20B3FD7F107E27120226FE
:10013C0020B3F3C3E5129410E5119427500E74E824
:10014C002512F51274033511F51180DA751103754A
:04015C0012E880D253
:03000B000201608F
:0D016000C0E0C0F0C083C082C0D075D008E0
:10016D00AE11AF12AB0FAA0EE4C39BFFE49AFE745F
:10017D00019400FDE49400FCE4FB7A01F9F812010E
:10018D00D68F8CAE11AF12AB0FAA0EE4C39BFFE45A
:10019D009AFE74019400FDE49400FCE4FB7A01F9ED
:1001AD00F81201D6AF0B8F8AE510C39408500405E1
:0E01BD00108003751000E51090000393F5907C
:0B01CB00D0D0D082D083D0F0D0E03242
:0300000002021ADF
:0C021A00787FE4F6D8FD7581120200DC4C
:1001D600C2D5E830E70FB2D5E4C39BFBE49AFAE454
:1001E60099F9E498F8EC30E717B2D512020C120030
:1001F6004AE4C39BFBE49AFAE499F9E498F880038D
:1002060012004A30D50DE4C39FFFE49EFEE49DFD37
:04021600E49CFC2246
:10000E0075F008758200EF2FFFEE33FECD33CDCCA9
:10001E0033CCC58233C5829BED9AEC99E58298402C
:10002E000CF582EE9BFEED9AFDEC99FC0FD5F0D609
:10003E00E4CEFBE4CDFAE4CCF9A88222B800C1B933
:10004E000059BA002DEC8BF084CFCECDFCE5F0CB71
:10005E00F97818EF2FFFEE33FEED33FDEC33FCEBAA
:10006E0033FB10D703994004EB99FB0FD8E5E4F965
:10007E00FA227818EF2FFFEE33FEED33FDEC33FC52
:10008E00C933C910D7059BE99A4007EC9BFCE99A46
:10009E00F90FD8E0E4C9FAE4CCFB2275F010EF2F8B
:1000AE00FFEE33FEED33FDCC33CCC833C810D7078B
:1000BE009BEC9AE899400AED9BFDEC9AFCE899F8C6
:0E00CE000FD5F0DAE4CDFBE4CCFAE4C8F92259
:00000001FF
