:0400EB007FE07E2E06
:0A00EF00EF1F70011E144E70F7227F
:10000E00438901758CFC758A1875A882C200D2903E
:10001E00D291D292D293C294C295750A0AE4F5098E
:10002E0020B1161200EB20B110C200D290D291C2B4
:10003E0094D292D293C295C28C20B01A200017127D
:10004E0000EB20B01120000ED200D290C291D294BB
:10005E00D292C293D29520B21A2000171200EB2032
:10006E00B21120000ED200C290D291D294C292D27E
:10007E0093D29520B3AA7F987E3A1200EF20B3A0B8
:10008E00D28CE509C3950A500405098003E4F509ED
:10009E00D200D290C291C294D292C293C295020063
:0100AE002E23
:03000B000200AF41
:0400AF00C0E0C0D01D
:1000B300758CFC758A18E5097008F508C28CC200B6
:1000C300800CE509B50A05850A0880020508E508DC
:1000D300B50904C294C295E508B50A07D294D2952E
:0300E3007508009D
:0500E600D0D0D0E03293
:030000000200F902
:0C00F900787FE4F6D8FD75812002000E2F
:00000001FF
