:020000040800F2
:10000000380C002079020008935A0008F9530008C0
:10001000915A000815190008E95D00080000000069
:10002000000000000000000000000000975A0008D7
:100030003D19000800000000955A0008995A000870
:10004000930200089302000893020008930200083C
:10005000930200089302000893020008930200082C
:10006000930200089302000893020008930200081C
:1000700019190008930200082519000893020008C6
:100080009302000831190008930200089302000847
:1000900093020008930200089302000893020008EC
:1000A00093020008930200089302000893020008DC
:1000B000E55A0008F15A0008FD5A000893020008AA
:1000C00093020008930200089302000893020008BC
:1000D00093020008C55D0008D15D0008DD5D0008E1
:1000E000930200089302000893020008930200089C
:1000F000930200089302000893020008930200088C
:100100009302000893020008095B000893020008AC
:100110009302000893020008155B0008215B0008A9
:10012000930200089302000893020008930200085B
:1001300000F002F800F090F80AA090E8000C824469
:100140008344AAF10107DA4501D100F085F8AFF246
:10015000090EBAE80F0013F0010F18BFFB1A43F0A5
:1001600001031847C4790000E4790000103A24BF65
:1001700078C878C1FAD8520724BF30C830C144BF0C
:1001800004680C607047000000230024002500264E
:10019000103A28BF78C1FBD8520728BF30C148BFEA
:1001A0000B6070476E2900F08181702900F0C382D6
:1001B000662907F03E84652907F03B84672907F02C
:1001C00038846129AFF3008003681B0A28BF41F01F
:1001D0008001692900F02E81642900F02B817529A6
:1001E00000F028816F2900F05082782900F08F827A
:1001F000E92900F0EB81E42900F0E881F52900F01D
:10020000E581EF2900F04D82F82900F08E82036825
:10021000DB0928BF41F08001632900F012867329B1
:1002200000F01786E32900F02286F32900F02786E4
:10023000002070471FB500F073FE0400002000216D
:1002400006F024FE401C60600020002106F008FE3D
:10025000E0601FBD10B510BD00F035FE1146FFF780
:10026000E9FF06F08FFD00F011FF03B4FFF7F2FF86
:1002700003BC00F059FF00000948804709480047C7
:10028000FEE7FEE7FEE7FEE7FEE7FEE7FEE7FEE746
:10029000FEE7FEE704480549054A064B70470000A3
:1002A0009D5A00083101000838060020380C002053
:1002B00038080020380800201CB50C46064B7B444B
:1002C00069460090204600F00AF90446002069467D
:1002D00000F018F920461CBD4302000010B5431C75
:1002E00002E010F8011B71B18107FAD14FF0013221
:1002F00002C88C1A8C4314EAC211F9D0C01A0A063B
:1003000003D0C01E10BDC01A10BD0A0401D0801E4B
:1003100010BD0902FCD0401E10BD4FF0000200B518
:10032000134694469646203922BFA0E80C50A0E818
:100330000C50B1F12001BFF4F7AF090728BFA0E8C6
:100340000C5048BF0CC05DF804EB890028BF40F892
:10035000042B08BF704748BF20F8022B11F0804FD4
:1003600018BF00F8012B704770477047704770B591
:10037000044685690068C10601D5302600E02026C4
:10038000C00707D070BDD4E9012130469047206AEC
:10039000401C20626D1EF6D570BD70B5044685699F
:1003A0000078C00707D170BDD4E901212020904713
:1003B000206A401C20626D1EF6D570BD09684A0592
:1003C00001D540B27047C905FCD500B27047096835
:1003D0004A0501D5C0B27047C905FCD580B2704747
:1003E00070B50C460546012A05D02878800600D550
:1003F000EA69002302E0012305E05B1C934202D27C
:10040000E05C0028F9D1A869E618C01AA861286A3A
:10041000184428622846FFF7AAFF04E0D5E9012125
:1004200014F8010B9047B442F8D32846FFF7B5FF04
:1004300070BD00002DE9F0410646002410687529C2
:10044000314616A510D0FFF7B9FF002802DA404266
:1004500013A507E031688A0701D512A502E0490714
:1004600004D511A5012401E0FFF7B1FF00210A2204
:1004700006F1240709E0B0FBF2FCB0FBF2F302FB4B
:100480001C00303078541846491C0028F3D123460C
:100490002A463046BDE8F04100F061BA0000000095
:1004A0002D0000002B0000002000000011680268F1
:1004B000006A530501D508700AE0D30501D508800C
:1004C00006E0130603D5C217C1E9000200E0086088
:1004D0000120704701694A1C02610878704700B525
:1004E0008FB0CDE901310021059105497944CDE96D
:1004F00003101146684600F029F90FB000BD000056
:10050000E5FFFFFF0A6802F8010B0A607047000070
:100510002DE9FF5F15468A460446DFF8AC80F844B3
:100520000027D8E900103E46CDE9001010E03AF867
:1005300016106A4602A800F0A6FC411C07D02178DC
:10054000890603D5E269391891420DD80744761C13
:100550002078800602D5E069B84205DDAE42E6DBD0
:100560003AF816000028E2D1A069C01BA06120461D
:10057000FFF7FDFED8E90010CDE90010002017E0DC
:100580003AF818106A4602A800F07DFCB0F1FF3F6F
:1005900081460BD000250DF1080B05E0D4E90121BF
:1005A0001BF8050090476D1C4D45F7D308F101007D
:1005B000B0428046E4DB206A384420622046FFF7E0
:1005C000ECFEBDE8FF9F00002E7500002DE9F04114
:1005D0008046D21D22F007020025D2E90002F5294B
:1005E00015A614D0011E72F1000106DA0023D0EB2B
:1005F000030063EB020211A608E0D8F800108B0795
:1006000001D50FA602E0490701D50EA60125114626
:10061000002408F1240704E000F05CF930323A5578
:10062000641C50EA0102F7D12B463246214640466F
:10063000BDE8F04100F093B9000000002D0000007B
:100640002B0000002000000030B4002100F1240441
:1006500008E002F00705D208303542EA4372DB08B1
:100660006554491C52EA0305F3D10468002310A223
:10067000250707D5A40600D421B1C46901230DA222
:10068000641EC46130BC00F06AB910B5044621464E
:100690001068FFF79CFE02462046BDE8104000238C
:1006A000D2E7D21D22F00701D1E90023CCE70000F8
:1006B0000000000030000000F0B40D46018809057C
:1006C00002D5214C7C4402E01F4C7C440E340021B6
:1006D00000F1240608E002F00F071209E75D42EA84
:1006E00003721B097754491C52EA0307F3D10278BD
:1006F0000023120704D5702D06D009B1022311344E
:100700002246F0BC00F02BB901231034F8E770B595
:1007100004460D4621461068FFF759FE0246294659
:100720002046BDE870400023C6E7D21D22F0070333
:10073000D3E90023C0E70368126843F02003036095
:100740000823C3610023B7E7907300002DE9F05F31
:10075000894604464FF0000ADFF874B1FB44C0F844
:1007600020A02046E1688847002874D0252806D0BC
:10077000D4E901219047206A401C2062F1E700265D
:100780005F462046E16888472028054607DB312D73
:1007900005D2781910F8200C08B10643F1E7B0072C
:1007A00001D526F00406C4F81CA00027C4F818A040
:1007B0002A2D09D0284606F0DDFA38B304EB870865
:1007C000303DC8F8185019E059F8041B204604EBD6
:1007D00087029161E1688847012F054618D1E069D9
:1007E000002820DA26F020061DE0D8F8180000EBDB
:1007F000800005EB40003038C8F818002046E1685A
:100800008847054606F0B6FA0028EED1012F0AD037
:100810002E2D08D12046E16888477F1C0546022F0F
:1008200046F02006C4DBA069002803DA404246F007
:100830000106A061F00701D026F010066C2D0BD048
:10084000682D09D04C2D39D06A2D35D0742D35D076
:100850007A2D33D016E038E0E1682F4620468847ED
:10086000B842054609D16C2F26D04FF48060E1686C
:10087000064320468847054604E06C2F1AD04FF403
:10088000807006430DB3A5F14100192802D8203528
:1008900046F400664A462946204626604E46FFF743
:1008A00081FC80B101280BD0F61D26F0070000F175
:1008B000080956E74020E4E78020D8E70020D6E783
:1008C00006F104094DE7284652E7206ABDE8F09F8B
:1008D0002073000030B5B0F10A024FEA900E71F1BA
:1008E00000034EEA817EB0EB0E0061EB91014FEA0E
:1008F000101E4EEA017E10EB0E0041EB11114FEA83
:10090000102E4EEA016E10EB0E0041EB11214FEA62
:10091000104E4EEA014E10EB0E0041EB1141401813
:1009200041F100014FEAD00040EA41704FEAD101A5
:1009300010EB80054FEA810444EA907444EB010413
:100940006D1944EB0404521BA3414FF0000348BF50
:100950000A3200D530BD401C41F1000130BD2DE907
:10096000F0470D4699469246044600F12408016876
:10097000880604D5E06921F01001216000E0012023
:10098000A84201DD471B00E00027A1697A1902EBAC
:100990000900081AA0612078C00602D42046FFF79B
:1009A000E6FC002608E0D4E901211AF80600904789
:1009B000206A401C761C20624E45F4DB2078C0067D
:1009C0000AD52046FFF7D3FC06E0D4E90121302008
:1009D0009047206A401C2062381EA7F10107F4DC12
:1009E00007E0D4E9012118F805009047206A401C6F
:1009F0002062281EA5F10105F3DC2046FFF7CDFC9F
:100A00002078000602D50220BDE8F0870120FBE730
:100A100070472DE9FF4F0C461E464FF0FF378BB055
:100A2000D2E90001DDF860800A908A46C1F30A55D8
:100A300005B93D46002108464FF00000BAF1000F0D
:100A400000F4400005DA00EB80004FF4400101EAB9
:100A500050004FEA9059B9F1010F00DDB9460A98EC
:100A600050EA4A000ED044F61050A5F2FF35454337
:100A70002F14B8F1000F1ED07542291E1EDDC9F1DA
:100A800000021CE0B8F1010F4FF0000001D030214E
:100A900003E0F24305E02154401CB042FBDB30464A
:100AA0000022002121540B99C1F80880C1E90020DF
:100AB0000FB0BDE8F08FBD1B6D1CDEE74A4600DAC3
:100AC000694206A800F070FA06AB93E8070003AB92
:100AD00083E8070050460A9900F02DFB8DE80700D7
:100AE000A0F500501F3800900398002D0ADD42F257
:100AF0001F014A460844002303A90390684600F0FA
:100B000096FD09E0A0F500504A461F38002303A9CE
:100B10000390684600F0A0FD8DE807000004000C7B
:100B200003D04FF0FF30410800E01046B8F1000F4D
:100B300003D00022009215461EE0751E05D4FFF773
:100B4000C9FE303262556D1EF9D5B3460122084305
:100B500002D000227F1C04E02078302801D100223E
:100B60007F1E002A099784D01DE0112D07DAFFF7B8
:100B7000B1FE303262556D1C50EA0102F5D10843D6
:100B800002D00098C8B10EE00021681E05E0235C89
:100B9000625C63542254401E491C8142F7DBAB4621
:100BA000A81B401E0990002004F80B000B98099A1E
:100BB000C0F80880C0E9002B7AE711264FF0000842
:100BC00057E72DE9F04F88460446D21D22F0070171
:100BD00091B0D1E90001CDE90A0106F0B7F802466B
:100BE0000B98C00F01D02D2007E02068810701D5A8
:100BF0002B2002E0202101EAC000032A099001D045
:100C0000072A05DB03464146204600F08DF90BE13B
:100C10002078800601D5E06900E00620B8F1650F74
:100C2000814606D0B8F1660F18D0B8F1670F70D1C1
:100C300031E00020B9F1110F009001DB112301E038
:100C400009F101030AAA01A90CA8FFF7E2FEDDE9F8
:100C50000C70002609F10105834647E001204B4650
:100C600000904FF000470AAA01A90CA8FFF7D1FE97
:100C7000DDE90DB00C995D46002610B909F10100BF
:100C80000D18B9EB050003D4C0F1FF3609F10105D9
:100C9000A5EB09002BE0B9F1010F01DA4FF00109D2
:100CA0000020B9F1110F0090484601DD112300E04A
:100CB00003460AAA01A90CA8FFF7ABFEDDE90C70F8
:100CC0004D4600268346207800070AD4AB4500DA5B
:100CD0005D4601A8012D04DD411911F8011C3029E0
:100CE00007D04F4502DA17F1040F04DA01208246DB
:100CF0000FE06D1EEEE7002F02DCED1B3E4403E02B
:100D0000781CA84200DD7D1CB81B00F1010A4FF0E1
:100D100000472078000703D4AA4501DB4FF0FF3AD3
:100D20000021B7F1004F0DF143088DF8431024D096
:100D300002202B23002F01DA7F422D230A21021EDD
:100D4000A0F1010000DC5FB197FBF1FC97FBF1F231
:100D500001FB1C7C17460CF1300C08F801CDEEE7C6
:100D6000A8F1010003702188090501D5452100E0A3
:100D70006521A0F1010800F8011C09980FA9A1EB59
:100D80000807FF1D00B10120411901EBEA70A169BC
:100D90003844081A401EA0612078C00602D42046BC
:100DA000FFF7E5FA099828B1D4E901219047206AB4
:100DB000401C20622078C00622D52046FFF7D7FAD3
:100DC0001EE0002E04DBB34502DD01A8805D00E0DB
:100DD0003020D4E901219047206A401C2062761C13
:100DE000AAF101005FEA000A0AD100F099F8C06890
:100DF0000168405CD4E901219047206A401C2062D0
:100E0000281EA5F10105DCDC07E0D4E9012118F872
:100E1000010B9047206A401C2062381EA7F1010791
:100E2000F3DC2046FFF7B9FA032011B041E610B514
:100E3000436913B1AFF3008001E0FFF7D1FA01205D
:100E400010BD127800F124010A7000224A700122BC
:100E5000EDE711684FF0FF32E9E710B5436913B1D0
:100E6000AFF3008001E0FFF753FB012010BD1288B3
:100E700000F1240182840022C2840122EDE711687E
:100E80004FF0FF32E9E770B516460C46054600F014
:100E90003FF8036893F80101012806D0FF2C0FD812
:100EA000185D68B101202C7070BDD3F8070132467F
:100EB000214603F2071303442846BDE87040184753
:100EC0004FF0FF3070BD754600F0EAF8AE46050001
:100ED0006946534620F00700854618B020B5FFF755
:100EE000D9F9BDE820404FF000064FF000074FF061
:100EF00000084FF0000B21F00701AC46ACE8C00938
:100F0000ACE8C009ACE8C009ACE8C0098D46704740
:100F100010B500F005F8001D10BD00BF715F0000A6
:100F200000487047F80500202DE9F0411F460446AF
:100F300003260168072A01F4006004DB08B116A546
:100F400005E016A503E008B115A500E015A521F000
:100F500010002060A069C01EA0610FB1401EA061FA
:100F60002046FFF704FA4FB1D4E9012138469047F3
:100F7000206A401C2062C01C206206E0206AFAE75A
:100F8000D4E9012115F8010B9047761EF8D22046CE
:100F9000FFF703FABDE8F0814E414E006E616E002E
:100FA000494E4600696E66002DE9F04781461646B7
:100FB0008AB0354878440DC88DE80D003248784431
:100FC000801C03AC0DC884E80D0041F69B3008443A
:100FD000372190FBF1F290FBF1F5A5F1800501FBC3
:100FE00012041B3C02D56442012000E00020DFF81F
:100FF00098A080460027FA44AAF1BE0A0EE0E00756
:101000000AD03246684607EB470101230AEB81010B
:1010100000F022FB8DE8070064107F1C002CEED14D
:10102000194F7F44AE3F19E0E80715D007EB0410D5
:101030000DF1180A90E80E008AE80E00C068F04230
:1010400001D1981908903246012306A903A800F09F
:1010500003FB03AB83E807006D10641C002DE3D194
:101060004FF0010332466946B8F1000F03A802D0E1
:1010700000F0DDFA01E000F0EFFAC9E90001C9F87B
:1010800008200AB0BDE8F087586B000010B5044690
:10109000AFF300802046BDE81040FFF7E6B800003F
:1010A00000487047D80500204FF0013C50F8042B51
:1010B00051F8043B9A4221D1A2EB0C03934313EA6B
:1010C000CC1317D150F8042B51F8043B9A4215D198
:1010D000A2EB0C03934313EACC130BD150F8042B6F
:1010E00051F8043B9A4209D1A2EB0C03934313EA53
:1010F000CC13DBD04FF00000704700BFD01A01BA0C
:10110000B1FA81F101F0180122FA01F0CB40C1F1EE
:101110002001DBB2C0B2C01A2CFA01F3D11A9143FC
:1011200011EAC311E6D1704701491820ABBEFEE7B2
:101130002600020070475FEA400C08BF91F0000FE4
:101140004FEA8C234FEAC12243EA51514FEA1C5027
:1011500018BF00F5F0404FEA300018BF41F00041E1
:101160005FEA6C5C00F02980BCF1FF3F08BF40F0F3
:1011700080407047130C06BF12044FF0100C4FF064
:10118000000C130E04BF12020CF1080C130F04BF65
:1011900012010CF1040C930F04BF92000CF1020C2D
:1011A000D30F04BF52000CF1010C11464FF00002A6
:1011B000A0F11F00A0EB0C00704711F0004F08BF1A
:1011C000704731F000413FF4D5AF0B0C06BF090466
:1011D0004FF0100C4FF0000C0B0E04BF09020CF185
:1011E000080C0B0F04BF09010CF1040C8B0F04BF9A
:1011F00089000CF1020CCB0F04BF49000CF1010C6B
:10120000CCF12003A0EB0C0022FA03F302FA0CF25B
:1012100041EA030100F10100704720F07F4C80EAB1
:10122000030023F07F47ACEB070303F57C5300F08A
:10123000004003F1FF032DE980494FEA154B09B443
:101240004FEA144325EA0B4E24EA03480FF2042622
:1012500006EB132749083E785FEA320203FB066774
:10126000C7F5000707FB06F64FEA54374FEAD646A4
:1012700006F1020607FB066CCCF1005C4FEA1C4746
:101280002CEA074C07FB06F40CFB06F504EB1546AD
:101290004FEA961634BF00204FF000404FEAD13796
:1012A00006FB07FC4FEA1C4C0CFB0BF7D21B03FBA5
:1012B0000CF761EB07010CFB0EF7B0EB074072EB8C
:1012C00017420CFB08F734BFA2EB0742B2EB074210
:1012D00061EB17414FEA0C444FEA910706FB07FC0C
:1012E0004FEA1C4C0CFB0BF7B0EBC74072EB5732CC
:1012F00003FB0CF734BFA2EBC742B2EBC74261EB72
:1013000057310CFB0EF7B0EBC70072EB57720CFBBA
:1013100008F734BFA2EBC702B2EBC70261EB57710B
:10132000039F4FEA816141EA921104EBCC044FEA3A
:10133000D1374FEA826206FB07FC42EA90124FEA7D
:1013400080604FEA1C4C0CFB0BF7D21B03FB0CF725
:1013500061EB07010CFB0EF7B0EB074072EB174295
:101360000CFB08F734BFA2EB0742B2EB074261EB7C
:1013700017414FEA8C554FEA910704EB9C2406FB7A
:1013800007FC4FEA1C4C0CFB0BF7B0EBC74072EBB1
:10139000573203FB0CF734BFA2EBC742B2EBC74294
:1013A00061EB57310CFB0EF7B0EBC70072EB5772D5
:1013B0000CFB08F734BFA2EBC702B2EBC70261EB2C
:1013C000577115EB4C254FEA816141EA92114FEAC2
:1013D00082624FEAD13742EA901206FB07FC44F1E1
:1013E00000044FEA80604FEA1C4C0CFB0BF7D21B49
:1013F00003FB0CF761EB07010CFB0EF7B0EB0740AA
:1014000072EB17420CFB08F734BFA2EB0742B2EBBA
:10141000074261EB174115EB1C154FEA813141EA98
:1014200092414FEA823242EA90424FEA80304FEADC
:101430000C7644F1000448EA03434EEA0B484FF0AF
:10144000000EB2EB080C71EB030724BF624639466D
:101450004EEB0E0E4FF0000B0018524149414BEB82
:101460000B0BB2EB080C71EB03077BF1000B24BFF5
:10147000624639464EEB0E0E4FF0000B00185241FB
:1014800049414BEB0B0BB2EB080C71EB03077BF103
:10149000000B24BF624639464EEB0E0E51EA02079E
:1014A00018BF46F0010616EB0E7655F1000254F116
:1014B000000103D5BDE88901BDE80088BDE88901C8
:1014C000BDE80048B619524141EB0101A3F1010307
:1014D000704780807F7E7D7C7B7A797877767675A1
:1014E0007473727171706F6E6E6D6C6C6B6A6A6919
:1014F0006868676666656464636362616160605FB3
:101500005F5E5E5D5D5C5C5B5B5A5A59595858572B
:101510005756565555555454535352525251515093
:1015200050504F4F4F4E4E4D4D4D4C4C4C4B4B4BE6
:101530004A4A4A494949484848474747474646462C
:101540004545454444444443434343424242424167
:101550004141002B9C4630D477002BD01CB54FEA7C
:10156000370703B44FF010004FF01001BAF1000F2D
:1015700006D0BCF1000FDCBF40F0080040F00801CD
:101580004FF000000FBCBDE810400BF1010BBBF1A8
:10159000010F08BF5FEA170722BF12F1010211F124
:1015A00001014FF0004143F1000300F0004043EA25
:1015B00000007047F9D35708D0E746EA064613F112
:1015C000400F4FEA16461FDD13F1200FDFBF164311
:1015D0000A46002120335B42BED0C3F1200746EA11
:1015E000064602FA07F74FEA164646EA0706C3F12F
:1015F000200722FA03F201FA07F721FA03F14FF06C
:10160000000342EA0702A7E746EA020646EA064660
:101610004FEA164646EA0106BCBF46EA0646360CC5
:101620004FF000034FF000024FF0000194E72DE966
:10163000804C9A46934670B491E8380007C831EA66
:10164000400C48BF34EA430C03D5FFF7E6FDFFF733
:1016500080FFF0BCBDE8008C2DE9804C9A46934693
:1016600070B491E8380007C810F0804F08BF13F03D
:10167000804F03D100F005F8FFF76BFFF0BCBDE829
:10168000008C20F07F4780EA030023F07F4C07EBBB
:101690000C03A3F57C5300F00040A3F1FE0392F08D
:1016A000000F00F0B38095F0000F00F077802DE977
:1016B00001494FEA11404FEA144621EA004800FB75
:1016C00006FC24EA064708FB06F607FB08F800FBC1
:1016D00007F718EB06484CEB164C4FEA124B18EB89
:1016E00007484FEA15464CEB174022EA0B4E0BFB1E
:1016F00006FC25EA06470EFB06F607FB0EFE0BFB73
:1017000007F71EEB064E4CEB164C4FF000061EEB97
:10171000074E4CEB174B18EB0B0840F1000018EB91
:101720000E0B58EB000840F100008F1A4FF000013B
:101730003CBFC943661B14BFB5EB040C00213CBF82
:10174000C943F61B4FEA17444EEA8E0E27EA0445BA
:101750004FEA1C4704FB07622CEA074C05FB07F71E
:101760000CFB05F604FB0CFC16EB074642EB17429C
:1017700016EB0C4642EB1C421BEB060658EB020232
:10178000414146EA9E0601D5BDE80189B61952419C
:1017900041EB0101A3F10103BDE801894FEA1445C2
:1017A0004FEA114724EA054621EA074C05FB07F4F6
:1017B00006FB07F70CFB06F105FB0CFC11EB0741E0
:1017C00044EB17444FEA124711EB0C4144EB1C4425
:1017D00022EA074C05FB07F206FB07F70CFB06F6AF
:1017E00005FB0CFC16EB074642EB174216EB0C46CA
:1017F00042EB1C456A1854F1000148BF7047B61906
:10180000524141EB0101A3F10103704795F0000F34
:1018100037D04FEA11424FEA144721EA024624EA40
:10182000074C02FB07F106FB07F70CFB06F402FB73
:101830000CFC14EB074441EB17414FEA154714EB3E
:101840000C4441EB1C4125EA074C02FB07F506FB63
:1018500007F70CFB06F602FB0CFC16EB074645EB04
:10186000174516EB0C4645EB1C42121951F10001CD
:1018700048BF7047B619524141EB0101A3F1010382
:1018800070474FEA14454FEA114724EA054621EA1A
:10189000074C05FB07F106FB07F70CFB06F24FF0C0
:1018A000000605FB0CFC12EB074241EB174112EB63
:1018B0000C4251EB1C4148BF7047921841EB0101AB
:1018C000A3F101037047000070B504460068816809
:1018D000C943C9071CD1816821F00101816000F072
:1018E00043FF05460FE000BF00F03EFF401B02280B
:1018F00009D9A06A40F01000A062E06A40F001003F
:10190000E062012070BD20688068C043C007EBD052
:10191000002070BDFEE70000014800F003BB00009E
:1019200020040020014800F0FDBA000098030020C8
:10193000014800F0F7BA0000DC0300207047704750
:101940002DE9F8430026054600960068734F0C46C3
:10195000B046B8420AD07249884207D071498842DD
:1019600004D040F2AA6170A005F00BFA206830B3F1
:10197000012824D0022822D0032820D004281ED0F9
:1019800005281CD006281AD0072818D0082816D0F9
:10199000092814D00A2812D00B2810D00C280ED0F9
:1019A0000D280CD00E280AD00F2808D0102806D0F9
:1019B000112804D040F2AB615BA005F0E2F9606849
:1019C000012822D0022820D003281ED004281CD0B1
:1019D00005281AD0062818D0072816D0082814D0B1
:1019E000092812D00A2810D00B280ED00C280CD0B1
:1019F0000D280AD00E2808D00F2806D0102804D0B1
:101A000040F2AC6148A005F0BCF9A06890B1012893
:101A100010D002280ED003280CD004280AD00528A4
:101A200008D0062806D0072804D040F2AD613EA0B9
:101A300005F0A7F995F82400012812D0012085F8B7
:101A4000240060681F2107280ED22B685A6B401EA5
:101A500000EB800081408A43216881400A435A6339
:101A60001AE00220BDE8F8832A680D280AD2136B19
:101A7000C01F00EB800081408B43216881400B43F5
:101A8000136309E0D36A0D3800EB800081408B437B
:101A9000216881400B43D362206807212A680A2805
:101AA0000AD3D3680A3800EB400081408B43A16819
:101AB00081400B43D36008E0136900EB4000814094
:101AC0008B43A16881400B4313612068102801D02B
:101AD00011281FD12868B84217D18168090219D48A
:101AE000816841F4000181602068102812D11C48EF
:101AF0001C490068B0FBF1F000EB8000400000E002
:101B0000401E00900028FBD104E0A86A40F02000AD
:101B1000A862012685F824803046A3E7002401400E
:101B200000280140003C01402E2E2F44726976654A
:101B300072732F53544D3332463178785F48414C9D
:101B40005F4472697665722F5372632F73746D33BD
:101B500032663178785F68616C5F6164632E630020
:101B60000C00002040420F002DE9F04704004FF028
:101B700000057CD075492068754E884209D07549AA
:101B8000884206D0B04204D04FF4C17172A005F073
:101B9000F8F8606838B1B0F5006F04D040F28311F6
:101BA0006DA005F0EEF8A0684FF4807930B148459B
:101BB00004D04FF4C27168A005F0E3F8E06830B1DA
:101BC000012804D040F2851163A005F0DAF8E0693D
:101BD0004FF400284FF4402AB8B1B0F5003F14D0BC
:101BE000B0F5C02F11D040450FD0B0F5202F0CD04C
:101BF00050450AD0B0F5802F07D0B0F5602F04D043
:101C00004FF4C37154A005F0BCF8A06800281CD0A4
:101C10002069401E0F2804D94FF4C5714EA005F06D
:101C2000B0F8606988B1012806D040F28B114AA053
:101C300005F0A7F8606940B1A069401E072804D9E3
:101C40004FF4C77144A005F09CF8A06A002728B99A
:101C5000E76284F82470204600F0A0F82046FFF7E1
:101C600033FEA16AC90600D430B1A06A00E06BE07F
:101C700040F01000A06267E0A16A21F4885141F0B1
:101C80000201A1622368E169B34202D1514500D14A
:101C90004146E668CC4641EA460261680A43A168CB
:101CA000614509D0012907D05FF00001D4F8148004
:101CB000B8F1010F02D00AE04946F7E7C6B1A66ABB
:101CC00046F02006A662E66A46F00106E6625E6815
:101CD00026F469460E435E60236899682C4E3140B5
:101CE00011439960A16861450BD0012909D00CE02E
:101CF000DFF8A080A66908EB46360E4346F4006183
:101D0000E5E7218A0D05A5F580152168CB6A23F446
:101D100070032B43CB62216889681F4B19409142A5
:101D200008D1E762A16A21F0020141F00101A1623C
:101D3000BDE8F087A06A20F0020040F01000A06229
:101D4000E06A40F00100E0620120F1E70024014078
:101D5000003C0140002801402E2E2F447269766518
:101D600072732F53544D3332463178785F48414C6B
:101D70005F4472697665722F5372632F73746D338B
:101D800032663178785F68616C5F6164632E6300EE
:101D9000FDF7E1FF00E0FFFFFE0E1FFF00B585B07D
:101DA0000021009101910291039100680E4988423F
:101DB00018D10E48816941F400718161816901F493
:101DC00000710491816941F0100181618069694667
:101DD00000F0100004903820009003200190044887
:101DE00000F014FB05B000BD0024014000100240CB
:101DF000001001402DE9F05F90F821100024022925
:101E000003D004218163012485E001680A6822F07F
:101E10000E020A6001680A6822F001020A603F4E61
:101E20003E4FB215DFF8F4C0DFF8F090DFF8ECA019
:101E3000DFF8E8B0DFF8E4E00168783F130115024D
:101E4000ACF1640CA9F15009AAF13C0AABF1280BE2
:101E5000AEF1140E4FF48018B14227D9B9420ED01A
:101E6000614512D049451DD0514518D0594518D06B
:101E7000714501D1424615E0294EB14201D10122FE
:101E800010E0274E1436B14201D110220AE0244E50
:101E90002836B14206D0224A3C32914201D11A463C
:101EA00000E02A461E49091F0A602BE0B94213D000
:101EB000614517D0494522D051451DD059451DD007
:101EC000714501D142461AE0B14202D14FF0807211
:101ED00015E0134EB14201D1012210E0104E14362C
:101EE000B14201D110220AE00D4E2836B14206D08F
:101EF0000B4A3C32914201D11A4600E02A4607497A
:101F000080394A60012180F82110002180F82010DA
:101F1000416B01B188472046BDE8F09F8000024038
:101F2000080402402DE9F05FC16B0A6801680B6884
:101F3000046C4FF0040808FA04F8844D844E854F71
:101F4000DFF814C2DFF81492DFF814A2DFF814B23D
:101F5000DFF814E218EA020F65D05FEA437862D531
:101F60000A68920603D40A6822F004020A60DFF8C5
:101F7000F0814FF48062016808F114081301140223
:101F8000414524D9A9420DD0B1420FD0B9421AD04F
:101F9000614515D0494515D0514501D1120312E0D4
:101FA000594501D104220EE0714501D140220AE0D9
:101FB0006D4D1435A94206D06B4A2832914201D1A9
:101FC0001A4600E022466749091F0A6029E0A94233
:101FD00013D0B14215D0B94220D061451BD049453C
:101FE0001BD0514502D14FF4800217E0414502D188
:101FF0004FF0806212E0594501D104220EE0714594
:1020000001D140220AE0584D1435A94206D0564A63
:102010002832914201D11A4600E022464B49083944
:102020004A60C16A71E04FF0020808FA04F818EA41
:10203000020F70D05FEA83786DD50A68920606D4E5
:102040000A6822F00A020A60012180F82110DFF8F4
:1020500010814FF40072016808F114081301140292
:10206000414524D9A9420DD0B1420FD0B9421AD06E
:10207000614515D0494515D0514501D1120312E0F3
:10208000594501D102220EE0714501D120220AE01A
:10209000354D1435A94206D0334A2832914201D138
:1020A0001A4600E022462F49091F0A6029E0A9428A
:1020B00013D0B14215D0B94220D061451BD049455B
:1020C0001BD0514502D14FF4001217E0414502D117
:1020D0004FF0007212E0594501D102220EE0714525
:1020E00001D120220AE0204D1435A94206D01E4A13
:1020F0002832914201D11A4600E02246134908399C
:102100004A60002180F82010816A00291CD0BDE8B7
:10211000F05F0847FFE70825A540154214D01A07CD
:1021200012D50A6822F00E020A6090F84020C36BB4
:10213000012101FA02F25A60816380F82110002126
:1021400080F82010016BE0E7BDE8F09F0800024036
:102150001C0002403000024044000240580002408F
:102160006C000240080402401C04024070B50400E8
:102170007ED05A4920685A4D88422DD05749143193
:10218000884229D055492831884225D053493C31CD
:10219000884221D05149503188421DD04F49643185
:1021A000884219D04D497831884215D0A84213D0C1
:1021B0004B49143188420FD04949283188420BD00D
:1021C00047493C31884207D045495031884203D0C5
:1021D000AA2144A004F0D5FD606840B1102806D0C3
:1021E000B0F5804F03D0AB213EA004F0CAFDA0683B
:1021F000402804D018B1AC213AA004F0C2FDE06838
:10220000802804D018B1AD2136A004F0BAFD2069B1
:1022100048B1B0F5807F06D0B0F5007F03D0AE2185
:1022200030A004F0AEFD606948B1B0F5806F06D013
:10223000B0F5006F03D0AF212AA004F0A2FDA06981
:1022400028B1202803D0B02126A004F09AFDE0692F
:1022500060B1B0F5805F09D0B0F5005F06D0B0F591
:10226000405F03D0B1211FA004F08BFD142000E0DB
:102270000CE02168A9420BD2184A52420A44B2FB30
:10228000F0F080002064154808380AE0012070BD95
:10229000134A52420A44B2FBF0F080002064104816
:1022A0000838E063022084F821000A6843F6F070E1
:1022B0008243F4E901031843D4E902352B43184360
:1022C0002369184363691843A369184310430860DE
:1022D0000020606301216177207770BD0800024013
:1022E000080402402E2E2F447269766572732F53B4
:1022F000544D3332463178785F48414C5F447269BF
:102300007665722F5372632F73746D333266317832
:10231000785F68616C5F646D612E63002DE9F04148
:10232000884604460025581E4FF6FF711E46174684
:10233000884204D340F27F111DA004F022FD94F8DE
:10234000200001280DD0012084F8200094F82110ED
:102350000020012907D084F8200002252846BDE886
:10236000F0810220FBE7022184F82110A06320689D
:10237000016821F00101016033463A46414620469A
:1023800003F033FDE06A00282068016802D041F0C4
:102390000E0106E021F0040101602068016841F0AF
:1023A0000A0101602068016841F001010160D5E780
:1023B0002E2E2F447269766572732F53544D33322B
:1023C000463178785F48414C5F4472697665722F78
:1023D0005372632F73746D3332663178785F68613E
:1023E0006C5F646D612E630070B5044600F0BCF94B
:1023F0000546601C02D004480078044400F0B4F99B
:10240000401BA042FAD370BD000000202DE9F84F18
:10241000DFF8D0B20D4604464FF00009584515D0FC
:10242000B148844212D0B14884420FD0B0488442AF
:102430000CD0B048844209D0AF48844206D0AF489F
:10244000844203D0CD21AEA004F09BFC2868010497
:10245000090C01D0000C03D0CE21A9A004F091FCFE
:102460006868F8B101281DD011281BD0022819D0A6
:10247000122817D0B149884214D0B149884211D0EE
:10248000B04988420ED0B04988420BD0AF4988424B
:1024900008D0AF49884205D0032803D0CF2198A0A7
:1024A00004F06FFC00274FF0010A00BF2E680AFA03
:1024B00007F806EA0806464575D15C4515D08A48F6
:1024C000844212D0894884420FD0894884420CD07B
:1024D0008848844209D08848844206D0874884428C
:1024E00003D0DD2186A004F04CFC944869680A1AE8
:1024F000814259D00EDC032976D006DC002953D066
:10250000012919D002296AD131E0112921D01229DB
:1025100065D13AE0B2F5881F46D006DCB2F5803FBF
:1025200042D0B2F5801F5AD13EE0B2F5001F3BD039
:10253000B2F5041F53D137E0E868022807D001281C
:1025400005D0032803D0E5216DA004F01AFCE8684B
:102550003FE0E868022807D0012805D0032803D00F
:10256000EC2167A004F00DFCE868001D31E0E8688C
:10257000022807D0012805D0032803D0F32160A04A
:1025800004F0FFFBE868083023E0E868022807D081
:10259000012805D0032803D0FA2159A004F0F1FB4B
:1025A000E8680C3015E091E0A86888B1012812D0E5
:1025B000022808D040F2071151A004F0E2FBA868FD
:1025C00030B1012807D04FF00809C4F8148006E0A4
:1025D0000420814603E04FF00809C4F81080FF2E64
:1025E00005D8224605E0FFE74FF00000F1E704F1CF
:1025F00004024FEA870001D9A0F1200013684FF0D0
:102600000F0101FA00FC23EA0C0309FA00FC43EA7B
:102610000C0313606868C0005ED54E48826942F0C2
:1026200001028261806927F0030200F0010000903E
:10263000494813189868BA07120F914088435C45BF
:1026400001D1002119E028498C4201D1012114E077
:1026500026498C4201D102210FE025498C4201D14B
:1026600003210AE023498C4201D1042105E02249DB
:102670008C4201D1052100E006219140014399607F
:102680006868C00304D5354908683043086003E032
:1026900032480168B14301606868800330480168CE
:1026A00001D5314300E0B14301606868C0022D48A4
:1026B000016801D5314300E0B143016068688002E0
:1026C00005D52848001D01683143016004E0254913
:1026D000091D0868B04308607F1C102FFFF4E6AEA8
:1026E000BDE8F88F00080140000C014000100140D7
:1026F0000014014000180140001C0140002001406E
:102700002E2E2F447269766572732F53544D3332D7
:10271000463178785F48414C5F4472697665722F24
:102720005372632F73746D3332663178785F6861EA
:102730006C5F6770696F2E6300000000000011106D
:1027400000002110000031100000121000002210C3
:10275000000032100010024000000140000401405F
:1027600004040140080401400148806870470000EB
:102770000000002070B5040033D02449206888424E
:1027800003D0AD2122A004F0FCFA606878B10128E2
:102790000DD002280BD0032809D0042807D0052823
:1027A00005D0062803D0AE2119A004F0EAFAA068EB
:1027B000B0F5805F03D3AF2115A004F0E2FA2168E1
:1027C0004CF6CC400860216845F255500860D4E9C9
:1027D000000141602168A0688860FFF7C5FF0546D9
:1027E00009E0012070BD00BFFFF7BEFF401B30288D
:1027F00001D9032070BD2068C0680028F4D1216889
:102800004AF6AA200860002070BD00000030004099
:102810002E2E2F447269766572732F53544D3332C6
:10282000463178785F48414C5F4472697665722F13
:102830005372632F73746D3332663178785F6861D9
:102840006C5F697764672E630000000000684AF6D9
:10285000AA21016000207047024881680278114473
:102860008160704700000020074810B5016841F002
:1028700010010160032000F0E1F8002000F006F8EC
:1028800000F03EF8002010BD0020024000B50146D7
:1028900087B00022372000F081F8372000F04EF892
:1028A0001348C16941F02001C161C06905A900F068
:1028B00020000690684600F0A9FB00F0F1FB0D49EE
:1028C0004000B0FBF1F10D480B4A491E0260416027
:1028D00040F2E7320021C0E90321816001F07AF97A
:1028E00010B1012007B000BD044801F02FFAF9E74C
:1028F0000010024040420F00001400406404002019
:102900000C4808B5816941F001018161816901F0DC
:1029100001010091C16941F08051C161C06900F0BD
:10292000805000900448416821F0E06141F000715E
:10293000416008BD001002400000014010B50400D5
:1029400003D5CE2106A004F01CFA04F01F010120DB
:1029500088406109890001F1E021C1F8000110BD42
:102960002E2E2F447269766572732F53544D333275
:10297000463178785F48414C5F4472697665722FC2
:102980005372632F73746D3332663178785F686188
:102990006C5F636F727465782E63000070B51546C6
:1029A0000C460646102A03D3BA2114A004F0E9F914
:1029B000102C03D3BB2111A004F0E3F91E480068DA
:1029C000C0F30223C3F107022046042A00D90422DF
:1029D000191D072901D2002300E0DB1E012404FA9F
:1029E00002F1491E014099409C40641E2C40214345
:1029F0003046BDE8704003F0B8BD00002E2E2F44D5
:102A00007269766572732F53544D3332463178783C
:102A10005F48414C5F4472697665722F5372632F31
:102A200073746D3332663178785F68616C5F636FA1
:102A3000727465782E6300000CED00E010B504465A
:102A400007280BD0062C09D0052C07D0042C05D064
:102A5000032C03D0A22108A004F093F9154904F037
:102A6000070208684FF6FF03184040EA0220124AA6
:102A70001043086010BD00002E2E2F447269766549
:102A800072732F53544D3332463178785F48414C3E
:102A90005F4472697665722F5372632F73746D335E
:102AA00032663178785F68616C5F636F72746578E5
:102AB0002E6300000CED00E00000FA050149012042
:102AC0000862704700000E4270B535A306460FCB72
:102AD00086B000258DE80F0035A000680490F0074F
:102AE0000CD1B0070AD4700708D4300706D4F0061A
:102AF00004D44FF4D3712FA004F043F93C4C042EBE
:102B000027D004DC012E28D0022E3ED140E0082E32
:102B10001FD0102E39D160682168C90135D5C0F3A6
:102B20008342C0031DF8025009D5606804A9C0F3B0
:102B30004040085C2F49B1FBF0F0454301E02E48CE
:102B400045436068400220D468000321B0FBF1F5E2
:102B50001BE000F0C5FA054617E0216AC1F3012029
:102B6000012803D1890701D5C5030EE0022805D14C
:102B7000616A890702D549F6404506E0032804D179
:102B80002068800301D54FF2244506B0284670BD69
:102B900000F096FA6168C1F38131491C4900D5E71C
:102BA00002030405060708090A0B0C0D0E0F10108E
:102BB000010200002E2E2F447269766572732F5326
:102BC000544D3332463178785F48414C5F447269E6
:102BD0007665722F5372632F73746D33326631785A
:102BE000785F68616C5F7263635F65782E63000075
:102BF0000010024000127A0000093D002DE9F84360
:102C000004460068524DC1070ED1810773D44107B5
:102C10007ED40107FCD4C0067BD47C214DA004F0F7
:102C2000B0F82078C00763D0606860B1B0F5807FED
:102C300009D0B0F5007F06D0B0F5407F03D08221E7
:102C400044A004F09EF8E8690026C00008D4E869B2
:102C500040F08050E861E869012600F08050009063
:102C60004B480168C90512D40168804641F480715F
:102C70000160FFF779FD074605E000BFFFF774FD2F
:102C8000C01B642823D8D8F80000C005F6D5286AF0
:102C900010F4407021D0A18801F4407181421CD011
:102CA000286A3C49012220F440700A6000220A6030
:102CB0002862C00711D0FFF757FD074641F2883858
:102CC00008E000BFFFF750FDC11B414502D90320BA
:102CD000BDE8F883286A8007F4D5286A616820F483
:102CE0004070084328621EB1E86920F08050E86116
:102CF0002078800717D5A06878B1B0F5804F0CD048
:102D0000B0F5004F09D0B0F5404F06D0C92101E021
:102D100009E00BE00FA004F034F86868A16820F423
:102D20004040084368602078C0060FD56069B0F560
:102D3000800F05D020B140F2251106A004F021F843
:102D40006868616920F48000084368600020BFE77C
:102D5000001002402E2E2F447269766572732F5335
:102D6000544D3332463178785F48414C5F44726944
:102D70007665722F5372632F73746D3332663178B8
:102D8000785F68616C5F7263635F65782E630000D3
:102D900000700040400442422DE9F0470E46050015
:102DA00004D140F22E3187A003F0EBFF2868C10761
:102DB0000AD1810708D4410706D4000704D440F2A1
:102DC0002F3180A003F0DDFF46B1012E06D0022E88
:102DD00004D04FF44C717BA003F0D3FFDFF81C82CA
:102DE000D8F8000000F00700B0420CD2D8F800106C
:102DF00021F007013143C8F80010D8F8000000F0B6
:102E00000700B04275D128687D4C810729D540075D
:102E100003D5606840F4E06060602878000703D55F
:102E2000606840F460506060A868A0B1802812D04B
:102E3000902810D0A0280ED0B0280CD0C0280AD0DE
:102E4000D02808D0E02806D0F02804D040F256312F
:102E50005CA003F096FF6068A96820F0F0000843CA
:102E600060602878C00751D0686868B1012821D017
:102E7000022822D040F25D3152A003F082FF686840
:102E8000012817D0022818D02068800700284EDAC1
:102E90006068696820F0030008436060FFF764FC25
:102EA0006968074641F2883001290FD0022981461E
:102EB00019D027E020688003E8E720688001E5E773
:102EC000FFF752FCC11B494501D918E081466068F3
:102ED000C0F381000128F3D118E000BFFFF744FCE4
:102EE000C11B49450BD86068C0F381000228F5D1A9
:102EF0000CE01CE0FFF738FCC11B494502D9032058
:102F0000BDE8F087606810F00C0FF3D1D8F800101E
:102F1000404601F00701B1420BD9016821F00701D9
:102F200031430160006800F00700B04201D0012089
:102F3000E6E728784FF4806640074FF4A0674FF427
:102F4000C0684FF4E06914D5E86860B1B0420AD0B7
:102F5000B84208D0404506D0484504D040F2B131CF
:102F600018A003F00EFF6068E96820F4E0600843F1
:102F700060602878000715D5286960B1B0420AD092
:102F8000B84208D0404506D0484504D04FF46E7191
:102F90000CA003F0F6FE6068296920F4605040EA56
:102FA000C100606000F09CF86168164AC1F303112B
:102FB000515CC840144908600020FFF767FC0020FE
:102FC0009EE700002E2E2F447269766572732F5390
:102FD000544D3332463178785F48414C5F447269D2
:102FE0007665722F5372632F73746D333266317846
:102FF000785F68616C5F7263632E6300002002403B
:1030000000100240367A00080C00002070B50D4612
:10301000040004D14FF4A66111A003F0B2FE25B95B
:1030200040F231510EA003F0ACFE0F2020601A4890
:10303000416801F003016160416801F0F001A160A5
:10304000416801F4E061E16040684FF4E06101EA49
:10305000D00020611148006800F00700286070BDB2
:103060002E2E2F447269766572732F53544D33326E
:10307000463178785F48414C5F4472697665722FBB
:103080005372632F73746D3332663178785F686181
:103090006C5F7263632E63000010024000200240E8
:1030A0000448054900684968044AC1F30221515C9B
:1030B000C84070470C00002000100240467A00080B
:1030C0000448054900684968044AC1F3C221515CBB
:1030D000C84070470C00002000100240467A0008EB
:1030E00012A185B00FC98DE80F0014A0144A006822
:1030F00004905168134811F00C0312D0042B10D027
:10310000082B0ED1C1F38343C9031DF803000AD570
:10311000516804AAC1F34041515C0A4A5043B0FBD4
:10312000F1F005B0704708494843FAE70203040587
:10313000060708090A0B0C0D0E0F10100102000003
:103140000010024000127A0000093D002DE9F84FFE
:10315000040004D14FF4B871F4A003F012FE4FF054
:10316000010A4FF000084FF48039FE4EFE4D2068F2
:1031700060B1C1070DD1810763D401077ED4400738
:103180007DD440F27111E9A003F0FBFD2078C00767
:1031900054D060684FF4A02740B1484506D0B842EB
:1031A00004D040F27711E1A003F0EBFD6868C0F3B2
:1031B0008100012807D06868C0F38100022809D186
:1031C0006868C00306D52868800337D56068002882
:1031D00076D033E06068484503D1286840F48030F9
:1031E00009E008B1B8420DD0286820F4803028608A
:1031F000286820F480202860606890B1FFF7B4FA56
:1032000007460AE0286840F480202860E5E700BF10
:10321000FFF7AAFAC01B642877D828688003F7D57F
:103220000CE0FFF7A1FA074605E000BFFFF79CFAA4
:10323000C01B6428F0D828688003F7D42078800762
:103240004ED5206930B1012804D040F2AB11B7A0AF
:1032500003F097FD60691F2804D94FF4D671B3A01D
:1032600003F08FFD686810F00C0F0AD06868C0F397
:10327000810002280CD16868C00301E033E06CE0F3
:1032800006D42868800713D52069012818D10FE0DB
:103290002069B0B1C6F800A0FFF766FA074604E05F
:1032A000FFF762FAC01B0228B6D828688007F7D556
:1032B0002868616920F0F80040EAC10028600FE04A
:1032C00033E1C6F80080FFF74FFA074605E000BF7C
:1032D000FFF74AFAC01B02289ED828688007F7D457
:1032E0002078000736D5A14FA06920B3012806D069
:1032F0004FF4F6718DA003F044FDA069D8B1C7F872
:1033000000A0FFF731FA074605E052E1FFF72CFA7B
:10331000C01B02288ED8686A8007F7D594484FF4FE
:10332000FA510068B0FBF1F0009000BF0098411E18
:103330000091FAD20EE0C7F80080FFF715FA0746B1
:1033400005E000BFFFF710FAC01B0228ACD8686A7E
:103350008007F7D4207840076CD5E068002740B19B
:10336000012806D0052804D040F21B216FA003F0ED
:1033700008FDE869C00008D4E86940F08050E861C1
:10338000E869012700F0805000907A480168C9057B
:1033900012D4016841F480710160FFF7E5F98346BA
:1033A00006E000BFFFF7E0F9A0EB0B00642893D81C
:1033B00070480068C005F5D5E06801280AD008B15A
:1033C000052811D0286A20F001002862286A20F020
:1033D000040002E0286A40F001002862E068A8B119
:1033E000FFF7C2F983460DE0286A40F00400286226
:1033F000F0E700BFFFF7B8F9A0EB0B0141F288300E
:10340000814287D8286A8007F4D50EE0FFF7ACF92F
:10341000834607E0FFF7A8F9A0EB0B0141F28830E3
:10342000814293D8286A8007F4D41FB1E86920F05C
:103430008050E861E069002876D0012809D0022890
:1034400007D040F2B92139A003F09BFCE0690028C5
:103450006AD06868C0F38100022866D0E06902285B
:1034600005D0C6F86080FFF77FF90446A4E0206A23
:1034700030B1484504D040F2C2212CA003F081FCB9
:10348000606A70B3B0F5802F2BD0B0F5002F28D034
:10349000B0F5402F25D0B0F5801F22D0B0F5A01F89
:1034A0001FD0B0F5C01F1CD0B0F5E01F19D0B0F58B
:1034B000001F16D0B0F5101F13D0B0F5201F10D08C
:1034C000B0F5301F0DD0B0F5401F0AD0B0F5501F39
:1034D00007D0B0F5601F04D040F2C32113A003F061
:1034E00050FCC6F86080FFF73FF9074605E000BFD3
:1034F000FFF73AF9C01B02285BD828688001F7D48F
:10350000206A48450FD1A06838B1B0F5003F04D01B
:1035100040F2D92105A003F034FC6868A16820F4CA
:1035200000300843686027E049E04AE02E2E2F442F
:103530007269766572732F53544D33324631787801
:103540005F48414C5F4472697665722F5372632FF6
:1035500073746D3332663178785F68616C5F726363
:10356000632E630000004242001002408004424289
:103570000C00002000700040D4E90801084369688D
:1035800021F4741108436860C6F860A0FFF7ECF8F6
:10359000044604E0FFF7E8F8001B022809D8286871
:1035A0008001F7D50BE000BFFFF7DEF8001B022813
:1035B00002D90320BDE8F88F28688001F4D40020E8
:1035C000F8E70120F6E7000070B5040023D0354984
:1035D0002068884203D0FC2133A003F0D2FBA0680E
:1035E00058B1802809D0B0F5807F06D0B0F5407F73
:1035F00003D0FD212CA003F0C4FB6068B0F5801F50
:1036000005D3401C03D0FE2127A003F0BAFB607C49
:10361000002610B105E0012070BD2674204600F0A0
:1036200061F802206074204600F076F8042578BB2B
:10363000204603F04BF858BB2068416821F0070191
:103640004160A06820B12648016821F001010160B5
:103650002348001F0168A26821F4607111430160D2
:103660006068411C04D10120FFF72EFA80B1401E92
:1036700021688A6822F00F0242EA10428A602168BB
:10368000CA6860F30F02CA60204602F07FFF08B1EB
:103690006574C0E7E67301206073A0736074002056
:1036A00070BD0000002800402E2E2F447269766500
:1036B00072732F53544D3332463178785F48414C02
:1036C0005F4472697665722F5372632F73746D3322
:1036D00032663178785F68616C5F7274632E630064
:1036E000306C004008B50068084988420DD1FFF7EA
:1036F000E5F90748C16941F00061C161C069054948
:1037000000F0006000900120086008BD0028004023
:10371000001002403C04424270B504000AD0206808
:10372000416821F008014160FFF71EF805464FF49B
:103730007A7608E0012070BDFFF716F8401BB04212
:1037400001D9032070BD206840680007F4D500202F
:1037500070BD000070B5040069D0514920688842EE
:1037600009D05049884206D04F49884203D06B2186
:103770004EA003F006FB606830B1B0F5827F03D045
:103780006C214AA003F0FDFAA06848B1B0F5806F43
:1037900006D0B0F5004F03D06D2144A003F0F1FA3C
:1037A000E068B0F5006F04D018B16E213FA003F0BF
:1037B000E8FA206928B1022803D06F213BA003F06A
:1037C000E0FA606928B1012803D0702137A003F026
:1037D000D8FAA069B0F5007F07D030B1B0F5802FDE
:1037E00003D0712131A003F0CCFAE06988B1082838
:1037F0000FD010280DD018280BD0202809D0282849
:1038000007D0302805D0382803D0722127A003F034
:10381000B8FA206A28B1802803D0732123A003F0CE
:10382000B0FA0025A56294F8510010B104E001201F
:1038300070BD204600F058F8022084F8510020683E
:10384000016821F040010160D4E901010843D4E995
:1038500003121143084361690843218B01F400718D
:103860000843E1690843216A0843A16A08432168C3
:103870000860A069042101EA1040616A08432168D8
:1038800048602168E06A08612068C16921F400612C
:10389000C1616565012084F85100002070BD000001
:1038A0000030014000380040003C00402E2E2F44E4
:1038B0007269766572732F53544D3332463178787E
:1038C0005F48414C5F4472697665722F5372632F73
:1038D00073746D3332663178785F68616C5F7370D2
:1038E000695F65782E63000030B585B000240094D0
:1038F00001940294039400681549884225D1154823
:10390000C16941F48041C161C16901F48041049100
:10391000816941F00801816180690F4D00F0080064
:1039200004904FF420400090022001900320039067
:1039300069462846FEF76AFD4FF48040CDE9000451
:10394000694628460294FEF761FD05B030BD0000CF
:103950000038004000100240000C014070477047E2
:1039600070B50C46054600684049884207D040497A
:10397000884204D04FF4C1613EA003F002FA2068EF
:10398000B0F5006F05D020B140F2096139A003F015
:10399000F8F96068B0F5806F05D020B140F20A6197
:1039A00034A003F0EEF9A06868B1B0F5807F0AD0CA
:1039B000B0F5007F07D0B0F5407F04D040F20B6136
:1039C0002CA003F0DEF9E068FF2804D940F20C6176
:1039D00028A003F0D6F92069B0F5805F05D020B1AA
:1039E00040F20D6123A003F0CCF9606938B1B0F565
:1039F000005F04D040F20E611EA003F0C2F9A0697E
:103A0000B0F5804F05D020B140F20F6119A003F04E
:103A1000B8F995F83C00012825D0012085F83C0034
:103A2000E068A26820F440701043626820F480606F
:103A30001043226820F400601043226920F4805073
:103A40001043626920F400501043A26920F48040C2
:103A50001043002120F4004010432A68506485F888
:103A60003C10002070BD022070BD0000002C014001
:103A7000003401402E2E2F447269766572732F53E5
:103A8000544D3332463178785F48414C5F44726917
:103A90007665722F5372632F73746D33326631788B
:103AA000785F68616C5F74696D5F65782E63000094
:103AB00070B50D46044600683049884219D0304937
:103AC000884216D0B0F1804F13D02E49884210D0D2
:103AD0002D4988420DD02D4988420AD02C49884270
:103AE00007D02C49884204D04FF4C7612AA003F0C4
:103AF00048F9286890B1102810D020280ED030281E
:103B00000CD040280AD0502808D0602806D0702851
:103B100004D040F2396120A003F033F968688028AE
:103B200005D020B140F23A611BA003F02AF994F8C5
:103B30003C0001281FD0012084F83C00022184F8B9
:103B40003D1021684A6822F070024A6021684A6884
:103B50002B681A434A6021688A6822F080028A60D2
:103B600021688A686B681A438A6084F83D000020E7
:103B700084F83C0070BD022070BD0000002C0140A4
:103B8000003401400004004000080040000C0040E8
:103B900000100040001400402E2E2F4472697665FC
:103BA00072732F53544D3332463178785F48414C0D
:103BB0005F4472697665722F5372632F73746D332D
:103BC00032663178785F68616C5F74696D5F6578C3
:103BD0002E63000010B5040042D02B4920688842B3
:103BE00018D02A49884215D0B0F1804F12D0284908
:103BF00088420FD0274988420CD02749884209D0F3
:103C00002649884206D02649884203D0D92125A0DA
:103C100003F0B7F8A06858B1102809D0202807D0C1
:103C2000402805D0602803D0DA211EA003F0A9F8AF
:103C3000206948B1B0F5807F06D0B0F5007F03D091
:103C4000DB2118A003F09DF8A06928B1802803D0DB
:103C5000DC2114A003F095F894F83D0010B107E0C2
:103C6000012010BD002084F83C00204600F036F80A
:103C7000022084F83D00211D206801F057FF01203B
:103C800084F83D00002010BD002C014000340140AC
:103C90000004004000080040000C004000100040FC
:103CA000001400402E2E2F447269766572732F53D4
:103CB000544D3332463178785F48414C5F447269E5
:103CC0007665722F5372632F73746D333266317859
:103CD000785F68616C5F74696D2E630008B5174A80
:103CE00001681748914207D1816941F400618161FF
:103CF000806900F400601EE0124A914211D1C1694E
:103D000041F01001C161C069002200F01000009074
:103D100011463620FEF742FEBDE808403620FEF789
:103D20000DBE094A914207D1816941F40051816178
:103D3000806900F40050009008BD0000002C014094
:103D400000100240001000400034014010B504464D
:103D500001681448814219D01348814216D0B1F14C
:103D6000804F13D01148814210D0114881420DD0AC
:103D7000104881420AD01048814207D00F48814242
:103D800004D040F261110EA002F0FBFF2068C16870
:103D900041F00101C1602068016841F0010101604A
:103DA000002010BD002C0140003401400004004000
:103DB00000080040000C00400010004000140040CB
:103DC0002E2E2F447269766572732F53544D333201
:103DD000463178785F48414C5F4472697665722F4E
:103DE0005372632F73746D3332663178785F686114
:103DF0006C5F74696D2E63002DE9F05F044690F8E6
:103E00003C000D4601283FD04FF0010B84F83CB038
:103E1000022084F83D0028684FF480594FF4005A7E
:103E2000484515D0504513D090B1102810D0202807
:103E30000ED030280CD040280AD0502808D0602856
:103E400006D0702804D040F67171DDA002F099FF11
:103E50002068816821F0770121F47F4181602F681B
:103E6000E548E649E64AE74BE74E4FF0804C4FF411
:103E70000048502F75D00FDC202F73D007DC002FA7
:103E800071D0102F70D15CE10220BDE8F09F302F7F
:103E90006BD0402FF6D110E1602F67D0702F66D025
:103EA0004F4541D05745EDD1276887420ED08F420C
:103EB0000CD067450AD0974208D09F4206D0B7423F
:103EC00004D04FF47A61BEA002F05BFFA86858B13D
:103ED000484509D0504507D0B0F5405F04D040F6C2
:103EE000A371B7A002F04DFF6868404509D040B10A
:103EF000022806D00A2804D040F6A471B0A002F02F
:103F000040FFE8680F2804D940F6A571ACA002F084
:103F100038FFD5E90121EB68206802F0F1FB206849
:103F2000816841F4804161E02568854214D08D426A
:103F300012D0654510D095420ED09D420CD0B542AE
:103F40000AD0B248854207D0B148854204D040F635
:103F50007D719BA002F015FF2068816821F00701A8
:103F600044E045E002E1D7E0A1E014E16FE027681A
:103F700087420ED08F420CD067450AD0974208D0B6
:103F80009F4206D0B74204D040F686718CA002F062
:103F9000F8FEA86858B1484509D0504507D0B0F59B
:103FA000405F04D040F6897185A002F0EAFE68689F
:103FB000404509D040B1022806D00A2804D040F676
:103FC0008A717FA002F0DDFEE8680F2804D940F670
:103FD0008B717BA002F0D5FED5E90121EB6820684A
:103FE00002F08EFB2068816841F0770181605EE01D
:103FF000276887420ED08F420CD067450AD097427F
:1040000008D09F4206D0B74204D040F6B4716CA0ED
:1040100002F0B7FE6868404509D040B1022806D0DA
:104020000A2804D040F6B77165A002F0AAFEE8683D
:104030000F2804D940F6B87161A002F0A2FEEA6828
:104040006968206802F090FD502120682DE0276803
:1040500087420ED08F420CD067450AD0974208D0D5
:104060009F4206D0B74204D040F6C37154A002F07C
:1040700088FE6868404509D040B1022806D00A2869
:1040800004D040F6C6714EA002F07BFEE8680F280F
:1040900004D940F6C7714AA002F073FEEA68696865
:1040A000206802F072FD6021206802F004FD84F8AF
:1040B0003DB0002084F83C00E7E6276887420ED038
:1040C0008F420CD067450AD0974208D09F4206D055
:1040D000B74204D040F6D27139A002F052FE6868AF
:1040E000404509D040B1022806D00A2804D040F645
:1040F000D57133A002F045FEE8680F2804D940F6D8
:10410000D6712FA002F03DFEEA686968206802F0CF
:104110002BFD40212068C8E7256885420ED08D42DE
:104120000CD065450AD0954208D09D4206D0B542D4
:1041300004D040F6E17122A002F023FE00212068A5
:10414000B3E7256885420ED08D420CD065450AD074
:10415000954208D09D4206D0B54204D040F6E971A0
:1041600017A002F00EFE102120689EE72568854208
:104170000ED08D420CD065450AD0954208D09D42A4
:1041800006D0B54204D040F6F1710DA002F0F9FD61
:104190002021206889E7256885420ED08D420CD009
:1041A00065450AD0954208D09D4206D0B54204D05C
:1041B00040F6F97102A002F0E4FD3021206874E7B6
:1041C0002E2E2F447269766572732F53544D3332FD
:1041D000463178785F48414C5F4472697665722F4A
:1041E0005372632F73746D3332663178785F686110
:1041F0006C5F74696D2E6300002C01400034014037
:104200000004004000080040000C00400010004086
:1042100000140040027F00214FF07043012A07D0B4
:10422000082A13D100680D4A90420FD10C4807E0CC
:104230000068B0F1804F0AD00A4A904209D10A487A
:104240000268521C02609A4200D30160704707481E
:10425000F6E7074A9042F9D10648F1E7000C004022
:104260004C000020000400404400002040000020DA
:1042700000080040480000202DE9F05F0446006877
:10428000864FDFF81C82DFF81C92DFF81CA2DFF8F3
:104290001CB216460D46B8420FD040450DD0B0F1C5
:1042A000804F0AD0484508D0504506D0584504D024
:1042B00040F6D5317EA002F064FD286840B10228A6
:1042C00006D00A2804D040F6D63179A002F059FD74
:1042D0006868012808D0022806D0032804D040F6D8
:1042E000D73173A002F04DFDA86850B1042808D062
:1042F000082806D00C2804D040F6D8316CA002F073
:1043000040FDE8680F2804D940F6D93168A002F0D2
:1043100038FD94F83C00012850D0012084F83C007E
:10432000022084F83D00EEB3042E59D02068082EF8
:104330007CD0B8420FD040450DD0B0F1804F0AD0AC
:10434000484508D0504506D0584504D04FF4416147
:1043500057A002F016FD2068D5E90026E968036A37
:1043600023F480530362C769036A27F4407747EA5E
:1043700006264FF6FF7726F4704607EA01313143EF
:104380004FF4005623F4005306EA02321A43C16187
:1043900002622068C16921F44061C1612068C1697D
:1043A000AA6800E00CE041EA0221C161012084F822
:1043B0003D00002084F83C00BDE8F09F0220FBE7B0
:1043C000D5E90012EB68206801F0C6FC206881691D
:1043D00021F00C01816120688169AA68114322E003
:1043E0002068B8420FD040450DD0B0F1804F0AD0C0
:1043F000484508D0504506D0584504D04FF43F6199
:104400002BA002F0BEFCD5E90012EB68206802F098
:10441000BBFA2068816921F440618161206881696B
:10442000AA6841EA02218161C0E7FFE7B8420FD0E4
:1044300040450DD0B0F1804F0AD0484508D05045D6
:1044400006D0584504D04FF4406119A002F099FC01
:104450002068D5E900272E7B016A21F48071016272
:10446000C169036A21F00301394321F0F0073107E4
:104470004FF4007647EA116123F4007306EA022242
:104480001A43C16102622068C16921F00C01C16157
:104490002068C169AA68114387E70000002C014029
:1044A000003401400004004000080040000C0040BF
:1044B0002E2E2F447269766572732F53544D33320A
:1044C000463178785F48414C5F4472697665722F57
:1044D0005372632F73746D3332663178785F68611D
:1044E0006C5F74696D2E630010B5040046D02D49D1
:1044F0002068884219D02C49884216D0B0F1804FEC
:1045000013D02A49884210D0294988420DD0294920
:1045100088420AD02849884207D02849884204D0D6
:1045200040F2EE5126A002F02CFCA06860B11028E9
:104530000AD0202808D0402806D0602804D040F2B5
:10454000EF511FA002F01DFC206950B1B0F5807F33
:1045500007D0B0F5007F04D04FF4BE6118A002F080
:1045600010FCA06930B1802804D040F2F15114A0B1
:1045700002F007FC94F83D0010B107E0012010BDE7
:10458000002084F83C00204600F036F8022084F831
:104590003D00211D206801F0C9FA012084F83D008A
:1045A000002010BD002C01400034014000040040F8
:1045B00000080040000C00400010004000140040C3
:1045C0002E2E2F447269766572732F53544D3332F9
:1045D000463178785F48414C5F4472697665722F46
:1045E0005372632F73746D3332663178785F68610C
:1045F0006C5F74696D2E630010B586B00021009168
:104600000191029103910368464901224648B3F1A2
:10461000804F23D0454CA3423CD1CB6943F00203E9
:10462000CB61CB6903F0020304938B6943F004036D
:104630008B618969029201F004010491402100918B
:104640006946FDF7E3FE002211461D20FEF7A6F99C
:104650005FF01D00FEF772F906B010BDCB6943F0A4
:104660000103CB61CB6903F0010304938B6943F031
:1046700004038B618969009201F0040104910292A4
:104680006946FDF7C3FE002211461C20FEF786F99D
:104690001C20DFE7264CA34224D1C86940F0040067
:1046A000C861C86900F004000490886940F02000E7
:1046B00088618869694600F0200004909814009091
:1046C00002921C48FDF7A2FE1B48416841F0E061E0
:1046D00041F480514160002211461E20FEF75EF930
:1046E0001E20B7E7154CA342B6D1CB6943F00803AF
:1046F000CB61CB6903F0080304938B6943F0040397
:104700008B618969029201F00401049108210091F2
:104710006946FDF77BFE002211463220FEF73EF986
:10472000322097E7001002400008014000040040DA
:10473000000800400014014000000140000C00404F
:1047400070B50C46054600683149884206D1ECB385
:10475000042C41D0082C50D00C2C53D02D49884229
:1047600006D19CB3042C37D0082C46D00C2C49D051
:10477000B0F1804F16D02849884206D134B3042CBA
:104780002AD0082C39D00C2C3CD02449884206D1A0
:10479000E4B1042C20D0082C2FD00C2C32D020498E
:1047A000884206D194B1042C16D0082C25D00C2CAC
:1047B00028D040F281611BA002F0E3FA34B1042C4E
:1047C0000AD0082C19D00C2C0BD11BE0FFE728686D
:1047D000C16841F0020103E02868C16841F00401AA
:1047E000C16001222146286801F0E6F928680168C5
:1047F00041F001010160002070BD2868C16841F0EE
:104800000801EDE72868C16841F01001E8E7000001
:10481000002C01400034014000040040000800402A
:10482000000C00402E2E2F447269766572732F5350
:10483000544D3332463178785F48414C5F44726959
:104840007665722F5372632F73746D3332663178CD
:10485000785F68616C5F74696D2E630070B50446A3
:10486000006801694FF00005C943890715D4C16884
:10487000C943890711D4E91E01610120207720680E
:1048800080698007204602D0FFF7C4FC04E000F0F6
:10489000E3F8204600F07BFA257720680169C943D8
:1048A000490717D4C168C943490713D46FF00401FD
:1048B0000161022020772068806910F4407F204643
:1048C00002D0FFF7A7FC04E000F0C6F8204600F095
:1048D0005EFA257720680169C943090716D4C168C3
:1048E000C943090712D46FF0080101610420207741
:1048F0002068C0698007204602D0FFF78BFC04E0E7
:1049000000F0AAF8204600F042FA257720680169F5
:10491000C943C90617D4C168C943C90613D46FF087
:1049200010010161082020772068C06910F4407FE1
:10493000204602D0FFF76EFC04E000F08DF8204620
:1049400000F025FA257720680169C943C90708D115
:10495000C168C943C90704D1891E0161204600F01E
:1049600093FA20680169C943090609D4C168C9439B
:10497000090605D46FF0800101612046FEF7EEFFC5
:1049800020680169C943490609D4C168C943490679
:1049900005D46FF040010161204600F07FFA2068E5
:1049A0000169C94389060BD4C168C943890607D484
:1049B0006FF0200101612046BDE87040FEF7CFBFD7
:1049C00070BD000000B585B00021009101910291F9
:1049D00003911B4B02681B4802219A421BD182693A
:1049E00042F0400282618069039100F0400004902F
:1049F0004FF4D440CDE9000169461348FDF706FDA8
:104A00001248416821F0C00141F0E06141F0C0016D
:104A1000416005B000BD0E4B9A42FAD1826942F066
:104A2000100282618069039100F0100004904FF43D
:104A30007070CDE9000169460648FDF7E7FCE8E73C
:104A4000002C01400010024000180140000001400D
:104A50000034014000100140704700002DE9F0478C
:104A6000044690F83C0016460D46012840D04FF011
:104A7000010984F83C9066B1042E0AD0082E08D0B3
:104A80000C2E06D0182E04D040F6374168A002F054
:104A900078F92868602806D0702804D040F638419C
:104AA00063A002F06EF9A86830B1022804D040F685
:104AB00039415FA002F065F9286930B1042804D0BB
:104AC00040F63A415AA002F05CF9022084F83D0019
:104AD0006549664A664B674FDFF89CC14FF08048D6
:104AE0004EB1042E2CD0082E51D00C2E4ED173E096
:104AF0000220BDE8F087206888420ED090420CD09A
:104B000040450AD0984208D0B84206D0604504D04B
:104B100040F6424146A002F034F92946206801F0EF
:104B2000F9FD2068816941F008018161206881698F
:104B300021F004018161206881692A69114324E020
:104B4000206888420ED090420CD040450AD098424E
:104B500008D0B84206D0604504D040F6514134A098
:104B600002F00FF92946206801F080F82068816979
:104B700041F4006181612068816921F48061816173
:104B8000206881692A6941EA022181614AE020683E
:104B900088420ED090420CD040450AD0984208D0AE
:104BA000B84206D0604504D04FF4466120A002F020
:104BB000E8F82946206801F01FFE2068C16941F02D
:104BC0000801C1612068C16921F00401C161206848
:104BD000C1692A69114324E0206888420ED09042BE
:104BE0000CD040450AD0984208D0B84206D0604563
:104BF00004D040F66F410EA002F0C3F829462068A9
:104C000001F070FE2068C16941F40061C161206853
:104C1000C16921F48061C1612068C1692A6941EAE2
:104C20000221C16184F83D90002084F83C0060E7D7
:104C30002E2E2F447269766572732F53544D333282
:104C4000463178785F48414C5F4472697665722FCF
:104C50005372632F73746D3332663178785F686195
:104C60006C5F74696D2E6300002C014000340140BC
:104C70000004004000080040000C004010B5040093
:104C800046D02D492068884219D02C49884216D038
:104C9000B0F1804F13D02A49884210D02949884268
:104CA0000DD0294988420AD02849884207D028498E
:104CB000884204D040F2EE3126A002F062F8A068EB
:104CC00060B110280AD0202808D0402806D06028DB
:104CD00004D040F2EF311FA002F053F8206950B128
:104CE000B0F5807F07D0B0F5007F04D04FF47C7121
:104CF00018A002F046F8A06930B1802804D040F234
:104D0000F13114A002F03DF894F83D0010B107E035
:104D1000012010BD002084F83C00204600F036F849
:104D2000022084F83D00211D206800F0FFFE0120D4
:104D300084F83D00002010BD002C014000340140EB
:104D40000004004000080040000C0040001000403B
:104D5000001400402E2E2F447269766572732F5313
:104D6000544D3332463178785F48414C5F44726924
:104D70007665722F5372632F73746D333266317898
:104D8000785F68616C5F74696D2E6300704770476F
:104D90002DE9F04105460068284E294F0C46B042E7
:104DA00006D1A4B3042C32D0082C30D00C2C2ED039
:104DB000B84206D15CB3042C29D0082C27D00C2C87
:104DC00025D0B0F1804F16D01E49884206D1F4B1EB
:104DD000042C1CD0082C1AD00C2C18D01A4988424C
:104DE00006D1A4B1042C12D0082C10D00C2C0ED05B
:104DF0001649884206D154B1042C08D0082C06D09C
:104E00000C2C04D040F24D4111A001F0BAFF012258
:104E10002146286800F0D0FE2868B04201D0B84290
:104E200003D1416C41F4004141642868016841F0BC
:104E3000010101600020BDE8F0810000002C01406C
:104E4000003401400004004000080040000C004015
:104E50002E2E2F447269766572732F53544D333260
:104E6000463178785F48414C5F4472697665722FAD
:104E70005372632F73746D3332663178785F686173
:104E80006C5F74696D2E630000680349884201D12C
:104E9000FDF7E2BC70470000001400407047704707
:104EA00010F8391F407808437047000070B5026859
:104EB00004461068D168536910F00F0F50D003F00A
:104EC000010501F4907635435DD0C20705D0CA05CF
:104ED00003D5E26B42F00102E263420705D5DA072F
:104EE00003D0E26B42F00202E263820705D5DA07E3
:104EF00003D0E26B42F00402E263020705D5DA0751
:104F000003D0E26B42F00802E263E26B002A33D086
:104F1000800604D5880602D5204601F0DBFA206819
:104F20004069E16BC0F38010090700D428B3204624
:104F300001F0CEFD2068416949061AD5416921F08A
:104F400040014161606BA0B11B494163606BFCF79C
:104F500051FF002810D0606B416BBDE870400847DE
:104F6000830610D58B060ED52046BDE8704001F0B3
:104F7000B1BA2046FFF793FF70BD2046FFF78FFFC1
:104F80000020E06370BD030606D50B0604D520465D
:104F9000BDE8704001F015BB4006F3D54806F1D5D9
:104FA000D168204621F04001D160202184F83910D9
:104FB00000F020FA70BD0000FF6A000870B5040020
:104FC00020D0A06933490028334A344B20681BD0D5
:104FD00088420AD0904208D0984206D040F20F1181
:104FE0002FA001F0CEFEA069F8B1A069B0F5807FD6
:104FF0001BD0B0F5007F18D0B0F5407F15D04FF42E
:1050000088710FE0012070BD88420ED090420CD014
:1050100098420AD03149884207D03149884204D0A9
:105020004FF48A711EA001F0ACFEA06838B1B0F553
:10503000805F04D04FF48B7119A001F0A2FE94F8A8
:105040003900002520B984F83850204600F04AF88D
:10505000242084F839002068C16821F40051C1601F
:10506000204600F0FDFE2068016921F490410161B5
:105070002068416921F02A0141612068C16841F43A
:105080000051C160E563202084F8390084F83A00BB
:10509000002070BD0038014000440040004800403E
:1050A0002E2E2F447269766572732F53544D33320E
:1050B000463178785F48414C5F4472697665722F5B
:1050C0005372632F73746D3332663178785F686121
:1050D0006C5F756172742E6300000000004C00402C
:1050E000005000402DE9F04786B000240094019460
:1050F000029403940546814BD0F800C080480221F9
:105100000322102680274FF4007A9C4540D1836902
:1051100043F480438361836903F480430493836988
:1051200043F0040383618069CDE900A100F004002D
:10513000CDE90320DFF8CC8169464046FDF766F9EA
:10514000B001CDE90004694640460294FDF75EF9DE
:10515000DFF8B8816C494046C8F80010C0E9016426
:10516000C0E90374C8F81440C8F81840C8F81C40D7
:10517000FCF7FCFF08B1FCF7E2FBC5F83080002229
:1051800011462520C8F82450FDF708FC252057E0DB
:10519000DFF87C815F4BDFF88091C44555D1D0F8B2
:1051A0001CC04CF4003CC0F81CC0D0F81CC00CF46F
:1051B000003CCDF810C0D0F818C04CF0200CC0F85E
:1051C00018C08069039200F0200004902020CDE9EF
:1051D0000001694698461846FDF718F94020CDE9C8
:1051E0000004694640460294FDF710F9D9F804100E
:1051F00041F0E06141F00801C9F80410DFF80C81CA
:10520000414908F144083C314046C8F80010C0E963
:105210000164C0E90374C8F81440C8F81840C8F81D
:105220001C40FCF7A3FF08B1FCF789FBC5F83080F0
:10523000002211462620C8F82450FDF7AFFB262097
:10524000FDF77CFB06B0BDE8F087DFF8D080C445F1
:10525000F8D1D0F81CC04CF4802CC0F81CC0D0F899
:105260001CC00CF4802CCDF810C0D0F818C04CF045
:10527000200CC0F818C08069039200F02000049050
:105280004FF48070CDE90001694698461846FDF755
:10529000BDF8CDE900A4694640460294FDF7B6F892
:1052A000D9F8041021F0300141F0E06141F0300103
:1052B000C9F80410DFF85480134908F18808283928
:1052C0004046C8F80010C0E90164C0E90374C8F89A
:1052D0001440C8F81840C8F81C40FCF747FF08B154
:1052E000FCF72DFBC5F83080002211462720C8F8B6
:1052F0002450FDF753FB2720A2E7000000380140AF
:1053000000100240000801404400024098030020C1
:1053100000440040001401400000014000480040EB
:1053200090F83A30202B22D1F9B1F2B190F8383010
:10533000012B1CD081628285C2850021C16322229B
:1053400080F83A2080F838100168CA6842F4807208
:10535000CA6001684A6942F001024A610068C16896
:1053600041F02001C16000207047012070470220F9
:105370007047704770B5044690F83900202830D146
:1053800069B362B394F8380001282AD0012084F868
:1053900038002162A284E2840025E563212084F89C
:1053A0003900236B10489862236B1048D862236B36
:1053B0000F481863206B134645632668206B321D27
:1053C000FCF7ACFF21686FF04000086084F83850AB
:1053D0002068416941F080014161002070BD0120D9
:1053E00070BD022070BD00000F6B0008C76A000886
:1053F000155E000870477047FEE700003EB50024C8
:1054000011480094019402948460C4600D49446181
:105410000160012505614FF460214460C161FCF722
:10542000A3FB08B1FCF78BFA0F20CDE90005694614
:1054300002940548FCF784FA002801D0FCF77FFAB3
:105440003EBD00000024014070000020114808B556
:10545000416941F0010141614069002200F0010011
:10546000009011460C20FDF799FA0C20FDF766FA22
:10547000002211460E20FDF791FA0E20FDF75EFA8C
:10548000002211461120FDF789FABDE808401120DD
:10549000FDF754BA0010024010B586B0002002900B
:1054A00003902A48816941F040018161816901F0DE
:1054B00040010491816941F010018161816901F02D
:1054C00010010491816941F004018161816901F059
:1054D00004010491816941F008018161816901F051
:1054E00008010491816941F02001816180690324F0
:1054F00000F02000049049F2FF50CDE90004694615
:105500001348FCF783FF4FF60740CDE900046946D6
:105510001048FCF77BFF49F6B610CDE90004694658
:105520000D48FCF773FF41F6FF70CDE900046946B2
:105530000A48FCF76BFF4EF69F40CDE90004694630
:105540000748FCF763FF06B010BD000000100240E2
:10555000001801400010014000080140000C01400B
:1055600000140140094810B5074901600521416058
:1055700040F2E2418160FDF7FDF8002803D0BDE86C
:105580001040FCF7DCB910BD00300040A000002046
:105590000A4810B5084901604FF0FF3141604FF4EF
:1055A00080718160FEF710F8002803D0BDE810403C
:1055B000FCF7C5B910BD000000280040AC00002079
:1055C0000F4810B50D4901604FF482714160002110
:1055D0008160C1604FF400720161C0E90512C161D0
:1055E0000162416281620A21C162FEF7B3F80028BC
:1055F00003D0BDE81040FCF7A2B910BD0038004050
:10560000C000002010B594B000240E940F941094A4
:10561000119412941C2168461394FAF77EFE1C2103
:1056200007A8FAF77AFE3548334901601121C0E92D
:10563000011440F2E731C1604FF40071C0E9041475
:105640008461FEF7C7FA08B1FCF779F94FF480508E
:105650000E900EA92948FEF7CFFB08B1FCF76FF9B1
:105660002648FFF70BFB08B1FCF769F9129412A961
:1056700022481394FEF71CFA08B1FCF760F9602089
:10568000CDE9000402940394049405940022694631
:105690001A480694FFF7E2F908B1FCF750F9042222
:1056A00069461648FFF7DAF908B1FCF748F908220D
:1056B00069461248FFF7D2F908B1FCF740F90C220D
:1056C00069460E48FFF7CAF908B1FCF738F90794A4
:1056D000089409944FF400500A94CDE90B4007A9AF
:1056E00006480D94FEF73CF908B1FCF728F9034889
:1056F000FFF768F914B010BD002C0140180100201C
:1057000010B586B0002418480594049400940194C0
:1057100002944FF080410394016041F61F41C0E9BB
:1057200001144FF6FF71C0E903148461FEF7DCFE3B
:1057300008B1FCF704F9049404A90B480594FEF79A
:10574000B7F908B1FCF7FBF80120CDE9004002945D
:105750000022694604480394FEF78EFD002801D01C
:10576000FCF7EDF806B010BD5801002010B586B06A
:10577000002417480594049400940194029413495A
:105780000394C0E900148460C46004618461FEF77E
:10579000ABFE08B1FCF7D3F8049404A90C480594B7
:1057A000FEF786F908B1FCF7CAF80120CDE9004000
:1057B00002940022694606480394FEF75DFD002826
:1057C00001D0FCF7BCF806B010BD0000000400409A
:1057D0009801002010B586B0002417480594049461
:1057E00000940194029413490394C0E90014846066
:1057F000C46004618461FEF777FE08B1FCF79FF88E
:10580000049404A90C480594FEF752F908B1FCF77A
:1058100096F80120CDE9004002940022694606482E
:105820000394FEF729FD002801D0FCF788F806B0A4
:1058300010BD000000080040D801002010B586B05F
:105840000024174805940494009401940294134989
:105850000394C0E900148460C46004618461FEF7AD
:1058600043FE08B1FCF76BF8049404A90C480594B6
:10587000FEF71EF908B1FCF762F80120CDE90040FF
:1058800002940C22694606480394FEF7F5FC0028B2
:1058900001D0FCF754F806B010BD0000000C004029
:1058A000180200201CB500240F4800940D490194F3
:1058B000016040F2CF21C0E9011442F20F7184610E
:1058C000C160FEF787F908B1FCF739F80094694622
:1058D00005480194FEF7ECF8002801D0FCF72FF8FA
:1058E0001CBD0000001000405802002010B594B00C
:1058F00000240E940F941094119412941C21684665
:105900001394FAF70AFD1C2107A8FAF706FD35489B
:10591000334901601121C0E9011440F2E731C1604F
:105920004FF40071C0E904148461FEF753F908B123
:10593000FCF705F84FF480500E900EA92948FEF7A9
:105940005BFA08B1FBF7FBFF2648FFF797F908B1B0
:10595000FBF7F5FF129412A922481394FEF7A8F85A
:1059600008B1FBF7ECFF6020CDE90004029403943A
:1059700004940594002269461A480694FFF76EF8CD
:1059800008B1FBF7DCFF042269461648FFF766F80A
:1059900008B1FBF7D4FF082269461248FFF75EF80A
:1059A00008B1FBF7CCFF0C2269460E48FFF756F80A
:1059B00008B1FBF7C4FF0794089409944FF4005012
:1059C0000A94CDE90B4007A906480D94FDF7C8FFDE
:1059D00008B1FBF7B4FF0348FEF7F4FF14B010BDA5
:1059E00000340140980200200C4810B50A490160BB
:1059F0004FF4E1314160002181600C22C160C0E9B7
:105A000004128161C161FFF7D9FA002803D0BDE813
:105A10001040FBF794BF10BD00380140D8020020B1
:105A20000C4810B50A4901604FF4E1314160002192
:105A300081600C22C160C0E904128161C161FFF77D
:105A4000BDFA002803D0BDE81040FBF778BF10BDB9
:105A500000440040180300200C4810B50A490160BA
:105A60004FF4E1314160002181600C22C160C0E946
:105A700004128161C161FFF7A1FA002803D0BDE8DB
:105A80001040FBF75CBF10BD0048004058030020E9
:105A9000FEE7704770477047704700000D48016887
:105AA00041F00101016041680B4A11404160016809
:105AB0000A4A11400160016821F4802101604168B7
:105AC00021F4FE0141604FF41F0181600449C003CD
:105AD00008607047001002400000FFF8FFFFF6FE6C
