:03000000020945AD
:0C094500787FE4F6D8FD75810C0208FDF7
:10091E00EF1FAA0670011E4A600F7D7CEDD3940076
:09092E007480948040EA1D80F3FE
:01093700229D
:0C0951003F065B4F666D7D077F6F00F373
:04080000AB07AA0692
:10080400E4F508F509F50AFC7D0AAF031208A88D82
:10081400087C007D64AF03AE021208A87E007F0A44
:10082400CFCDCFCECCCE1208A88F097C037DE8AF04
:1008340003AE021208A87E007F64CFCDCFCECCCE0B
:100844001208A88F0AAE02AF037C277D101208A8F5
:100854007E037FE8CFCDCFCECCCE1208A875A0FE04
:10086400EF90095193F5807F017E0012091E75A057
:10087400FDE50A90095193F5807F017E0012091E5F
:1008840075A0FBE50990095193F5807F017E001264
:10089400091E75A0F7E50890095193F5807F017E44
:0408A4000002091E27
:03000300020938B7
:0D093800C0E0050CE50C7002050BD0E032AC
:0300130002095D82
:07095D00750B00750C003260
:1008FD00E4F50BF50C7580FF75A0FF75B0FFD28880
:10090D00D28AD2A8D2AAD2AFAF0CAE0B12080080F9
:01091D00F7E2
:1008A800BC000BBE0029EF8DF084FFADF022E4CC34
:1008B800F875F008EF2FFFEE33FEEC33FCEE9DECFD
:1008C800984005FCEE9DFE0FD5F0E9E4CEFD22ED43
:1008D800F8F5F0EE8420D21CFEADF075F008EF2F8D
:1008E800FFED33FD4007985006D5F0F222C398FD7E
:0508F8000FD5F0EA221B
:00000001FF
