:0300000002088F64
:0C088F00787FE4F6D8FD75810702089B15
:10087F003F065B4F666D7D077F6F777C395E7971C1
:10083B007F01EFD394007480948040217E26EED309
:10084B0094007480948040127D82EDD39400748068
:0D085B00948040031D80F31E80E41F80D5B3
:01086800226D
:05089B0012086980FE57
:10086900758920759850758DE6858D8B758780D231
:06087900AFD2ACD28E22CA
:03002300020800D0
:10080000C0E0C083C082C0D075D000C005C006C0A3
:0108100007E0
:10081100309816C298AF99D2A2D2A3D2A4EF900871
:0B0821007F93F58012083B8002C29913
:0F082C00D007D006D005D0D0D082D083D0E03214
:00000001FF
