:030000000208767D
:0C087600787FE4F6D8FD7581090208388F
:0C0882003F065B4F666D7D077F6F00F343
:10080000E4F509EF75F00A8485F009EF75F064846A
:10081000E5F075F00A8475A0FE90088293F5807F5C
:10082000057E0012085C75A0FDE50990088293F52D
:08083000807F057E0002085CD8
:0300030002088E62
:04088E00758B003234
:03001B0002089246
:04089200758B003230
:10083800E4F5087580FF75A0FFD288D2A8F58BF57E
:100848008D758960D2ABD2AFD28E858B08AF081276
:04085800080080F61E
:10085C00EF1FAA0670011E4A600F7D7CEDD3940039
:09086C007480948040EA1D80F3C1
:010875002260
:00000001FF
