:030000000208945F
:0C089400787FE4F6D8FD75810802085555
:10087A00EF1FAA0670011E4A600F7D7CEDD394001B
:09088A007480948040EA1D80F3A3
:010893002242
:0A08A000407924301912027800108C
:10085500E4F508E5089008A093F5A07F207E031233
:10086500087AE5082401FFE433FE7C007D0A1208BE
:05087500008D0880DE8B
:10080000BC000BBE0029EF8DF084FFADF022E4CCDC
:10081000F875F008EF2FFFEE33FEEC33FCEE9DECA5
:10082000984005FCEE9DFE0FD5F0E9E4CEFD22EDEB
:10083000F8F5F0EE8420D21CFEADF075F008EF2F35
:10084000FFED33FD4007985006D5F0F222C398FD26
:050850000FD5F0EA22C3
:00000001FF
