:030000000208BF34
:0C08BF00787FE4F6D8FD75810B0208007C
:1008A500EF1FAA0670011E4A600F7D7CEDD39400F0
:0908B5007480948040EA1D80F378
:0108BE002217
:0C08CB00C0F9A4B0999282F88090FF0C54
:10087200EF75F00A84AEF0EF75F00A84F50B75A0FF
:1008820002AF06EF9008CB93F5807F057E00120839
:10089200A575A001E50B9008CB93F5807F057E003E
:0308A2000208A5A4
:10080000E4F508F509F50A7580FF75A0FF75B0FFDE
:100810007508FFE50865B0605285B008AF0A120898
:100820007220B217AF0A1208720509D3E509946461
:100830007480948040EB75096580E6AF097E00D333
:10084000EF940074809480400ED3EF94647480948D
:10085000805004050A8011D3EF9464EE6480948084
:100860004006740A250AF50AE4F509AF0A1208726F
:0208700080A165
:00000001FF
