:0A009300EF1F70011E144E70F722DB
:10000E00438901758CFC758A1875A882D290D2919D
:10001E00D292D293C294C295750A0AE4F50920B31E
:10002E00FD7F987E3A12009320B3F3D28CE509C37C
:10003E00950A500405098003E4F509D290C291C2D5
:09004E0094D292C293C29580D5B0
:03000B0002005799
:04005700C0E0C0D075
:10005B00758CFC758A18E509B50A05850A088002B6
:10006B000508E508B50904C294C295E508B50A0769
:07007B00D294D29575080034
:05008200D0D0D0E032F7
:0300000002008774
:0C008700787FE4F6D8FD75810A02000EB7
:00000001FF
