:10028A003A28391135243612123624351139283ACA
:04029A007FE87E0378
:0A029E00EF1F70011E144E70F722CE
:10000E00C2007512037513E8438901AE12AF13AB2C
:10001E0007AA06E4C39BFFE49AFE74019400FDE474
:10002E009400FCE4FB7A01F9F81202468F8CAE12B2
:10003E00AF13AB07AA06E4C39BFFE49AFE740194C8
:10004E0000FDE49400FCE4FB7A01F9F8120246AFDD
:10005E00038F8A75A88220B11112029A20B10BC2A9
:10006E000090028AE493F590C28C20B019200016FD
:10007E0012029A20B01020000DD200D28C751203FD
:10008E007513E8E4F51120B21920001612029A2019
:10009E00B21020000DD200D28C7512037513E875C4
:1000AE00110120B3B17F107E2712029E20B3A7C389
:1000BE00E5139488E5129413500E74F42513F5137A
:1000CE0074013512F51280067512037513E8D2000D
:0500DE00D28C02006459
:03000B000201B13E
:0D01B100C0E0C0F0C083C082C0D075D0088F
:1001BE00AE12AF13AB0FAA0EE4C39BFFE49AFE740C
:1001CE00019400FDE49400FCE4FB7A01F9F81202BC
:1001DE00468F8CAE12AF13AB0FAA0EE4C39BFFE497
:1001EE009AFE74019400FDE49400FCE4FB7A01F99C
:1001FE00F8120246AF0B8F8AE5117016E510C39404
:10020E0008500405108003751000E51090028A93C3
:10021E00F590E511B40116E510C3940850040510CD
:0D022E008003751000E51090029293F5908A
:0B023B00D0D0D082D083D0F0D0E032D1
:030000000202A851
:0C02A800787FE4F6D8FD75812002000E7E
:10024600C2D5E830E70FB2D5E4C39BFBE49AFAE4E3
:1002560099F9E498F8EC30E717B2D512027C12014E
:100266001FE4C39BFBE49AFAE499F9E498F8800347
:1002760012011F30D50DE4C39FFFE49EFEE49DFDF1
:04028600E49CFC22D6
:1000E30075F008758200EF2FFFEE33FECD33CDCCD4
:1000F30033CCC58233C5829BED9AEC99E582984057
:100103000CF582EE9BFEED9AFDEC99FC0FD5F0D633
:10011300E4CEFBE4CDFAE4CCF9A88222B800C1B95D
:100123000059BA002DEC8BF084CFCECDFCE5F0CB9B
:10013300F97818EF2FFFEE33FEED33FDEC33FCEBD4
:1001430033FB10D703994004EB99FB0FD8E5E4F98F
:10015300FA227818EF2FFFEE33FEED33FDEC33FC7C
:10016300C933C910D7059BE99A4007EC9BFCE99A70
:10017300F90FD8E0E4C9FAE4CCFB2275F010EF2FB5
:10018300FFEE33FEED33FDCC33CCC833C810D707B5
:100193009BEC9AE899400AED9BFDEC9AFCE899F8F0
:0E01A3000FD5F0DAE4CDFBE4CCFAE4C8F92283
:00000001FF
