:020000040800F2
:1000000038040020010100086D0300086D0200089B
:10001000A502000849010008A1070008000000002F
:10002000000000000000000000000000ED040008D7
:100030004D01000800000000F5030008010600085B
:100040001B0100081B0100081B0100081B01000820
:100050001B0100081B0100081B0100081B01000810
:100060001B0100081B0100081B0100081B01000800
:100070001B0100081B0100081B0100081B010008F0
:100080001B0100081B0100081B0100081B010008E0
:100090001B0100081B0100081B0100081B010008D0
:1000A0001B0100081B0100081B0100081B010008C0
:1000B0001B0100081B0100081B0100081B010008B0
:1000C0001B0100081B0100081B0100081B010008A0
:1000D0001B0100081B0100081B0100081B01000890
:1000E0001B0100081B0100081B010008DFF80CD0F1
:1000F00000F018F800480047A10800083804002064
:100100000648804706480047FEE7FEE7FEE7FEE7B1
:10011000FEE7FEE7FEE7FEE7FEE7FEE7050600086E
:10012000ED000008064C074D06E0E06840F00103D2
:1001300094E8070098471034AC42F6D3FFF7DAFF93
:10014000100A0008300A000800BFFEE770472DE9DA
:10015000F04102460025002600200023002400274D
:1001600091F803C00CF00F0591F803C00CF0100CCF
:10017000BCF1000F03D091F802C04CEA050591F8DC
:1001800000C0BCF1000F31D0146800202BE04FF00C
:10019000010C0CFA00F3B1F800C00CEA03069E4211
:1001A00020D183004FF00F0C0CFA03F7BC4305FA83
:1001B00003FC4CEA040491F803C0BCF1280F06D1FB
:1001C0004FF0010C0CFA00FCC2F814C00AE091F8E0
:1001D00003C0BCF1480F05D14FF0010C0CFA00FC34
:1001E000C2F810C0401C0828D1D31460B1F800C078
:1001F000BCF1FF0F34DD546800202EE000F1080C44
:100200004FF0010808FA0CF3B1F800C00CEA03063D
:100210009E4221D183004FF00F0C0CFA03F7BC4330
:1002200005FA03FC4CEA040491F803C0BCF1280F62
:1002300005D100F1080C08FA0CF8C2F8148091F806
:1002400003C0BCF1480F07D100F1080C4FF00108C2
:1002500008FA0CF8C2F81080401C0828CED354606D
:10026000BDE8F081416170470161704700BFFEE762
:1002700008B50121042000F0BFF84020ADF80000CF
:1002800010208DF8030003208DF802006946044811
:10029000FFF75DFF40210248FFF7E6FF08BD0000C1
:1002A0000008014000BFFEE708B50121082000F06A
:1002B000A3F83C20ADF8000010208DF803000320C7
:1002C0008DF8020069460448FFF741FF3C210248CF
:1002D000FFF7C8FF08BD0000000C014010B5042165
:1002E0000348FFF7C1FF08210148FFF7BBFF10BD1E
:1002F000000C014010B504210348FFF7B3FF0821AB
:100300000148FFF7B1FF10BD000C014010B50421FA
:100310000348FFF7A9FF08210148FFF7A5FF10BD1B
:10032000000C014010B510210348FFF79DFF20216C
:100330000148FFF797FF10BD000C014010B51021D8
:100340000348FFF78FFF20210148FFF78DFF10BD05
:10035000000C014010B510210348FFF785FF202154
:100360000148FFF781FF10BD000C014070470000FD
:1003700070B5002100230F22C47804B3154C246803
:1003800004F4E064C4F5E064210AC1F10403CA4046
:10039000447804FA03F184781440214309010E4C97
:1003A0000678A155047804F01F050124AC400578B7
:1003B0006D11AD0005F1E025C5F8004109E00478B4
:1003C00004F01F050124AC40044D0678761145F871
:1003D000264070BD0CED00E000E400E080E100E0AC
:1003E00002490143024A1160704700000000FA050B
:1003F0000CED00E07047000029B1064A9269024303
:10040000044B9A6104E0034A92698243014B9A616A
:10041000704700000010024030B500210022002487
:1004200000232D4D6D6805F00C0121B1042905D084
:10043000082923D105E0294D056022E0274D0560FC
:100440001FE0254D6D6805F47012234D6D6805F4AD
:100450008034022505EB92421CB9214D55430560BD
:100460000BE01D4D6D6805F400351DB11C4D554365
:10047000056002E0194D5543056002E0174D056027
:1004800000BF00BF144D6D6805F0F0010909154D5E
:100490006B5C0568DD4045600F4D6D6805F4E061FB
:1004A000090A104D6B5C4568DD4085600A4D6D683A
:1004B00005F46051C90A0B4D6B5C4568DD40C560B1
:1004C000054D6D6805F44041890B074D6B5CC568AF
:1004D000B5FBF3F5056130BD0010024000127A0053
:1004E00000093D001E0000202E000020704710B5BE
:1004F00000F002F810BD00000CB500200190009043
:100500003348006840F480303149086000BF30480B
:10051000006800F4003000900198401C01900098A1
:1005200018B90198B0F5A06FF1D12948006800F41E
:10053000003010B10120009001E0002000900098F0
:10054000012843D12348006840F010002149086089
:100550000846006820F0030008600846006840F084
:10056000020008601A484068194948600846406817
:1005700048600846406840F480604860084640682B
:1005800020F47C1048600846406840F4E810486059
:100590000846006840F08070086000BF0C480068A2
:1005A00000F000700028F9D00948406820F00300EE
:1005B000074948600846406840F00200486000BFB4
:1005C0000348406800F00C000828F9D10CBD000079
:1005D0000010024000200240042808D14FF0E02122
:1005E000096941F004014FF0E022116107E04FF08A
:1005F000E021096921F004014FF0E0221161704708
:100600007047000010B51348006840F00100114920
:10061000086008464068104908400E49486008468E
:1006200000680E4908400B4908600846006820F43D
:10063000802008600846406820F4FE0048604FF4BF
:100640001F008860FFF753FF4FF000600449086007
:1006500010BD0000001002400000FFF8FFFFF6FE92
:1006600008ED00E021B1828942F40052828104E069
:1006700082894DF6FF731A4082817047F0B50346B8
:10068000002400260025002040F66A17B94200D158
:1006900000BF1846C1F3421401F01F06012707FAF4
:1006A00006F5012C01D10C3004E0022C01D11030F0
:1006B00000E014301AB107682F43076002E00768B2
:1006C000AF430760F0BD00002DE9F04786B0054656
:1006D0000E460024A24600BFA1460027B08900B103
:1006E00000BF2F462C8A4CF6FF700440F08804436C
:1006F0002C82AC894EF6F3100440B088318908434F
:10070000718908430443AC81AC8A4FF6FF40044032
:10071000B0890443AC8201A8FFF77EFE1F488742E0
:1007200002D1DDF810A001E0DDF80CA0A88900F4EA
:10073000004040B10AEBCA0000EB0A1031684900E2
:10074000B0FBF1F807E00AEBCA0000EB0A103168D1
:100750008900B0FBF1F86420B8FBF0F00401200937
:10076000642101FB1089A88900F4004040B13220C7
:1007700000EBC900B0FBF1F000F00700044308E013
:10078000322000EB09106421B0FBF1F000F00F0003
:1007900004432C8106B0BDE8F0870000003801401A
:1007A00000BFFEE7014A024900F013B885080008BF
:1007B0001800002002E008C8121F08C1002AFAD160
:1007C00070477047002001E001C1121F002AFBD1D1
:1007D00070472DE9F04116460F460446002503E018
:1007E0003946B047641C6D1C20780028F8D1284693
:1007F000BDE8F08110B56FF00400FFF7EDFE0A4888
:1008000000680A49B0FBF1F0094908700846007811
:1008100000EB4001C1EBC0104FF6FF7101EAC000D0
:100820000449088010BD00000000002000127A007A
:1008300014000020160000200146114A12884A4385
:100840004FF0E0235A6100229A611A46126942F081
:1008500001021A6100BF4FF0E022106900F00102AE
:100860001AB100F48032002AF5D04FF0E02212696C
:1008700022F001024FF0E0231A6100229A617047D2
:100880001600002000BF054A128802F04002002A2C
:10089000F9D0C2B2014B1B1D1A80704700380140CD
:1008A0004FF4A060FFF79CFD4FF4E13000F060F8DA
:1008B000FFF7DEFCFFF79EFFFFF7F6FC45E023A005
:1008C000FFF770FF4FF47A70FFF7B6FF012026495B
:1008D00008604FF47A70FFF7AFFF00202349C1F89A
:1008E00098014FF47A70FFF7A7FFFFF703FDFFF7BA
:1008F00025FD42F21070FFF79FFF42F21070FFF7E4
:100900009BFF42F21070FFF797FFFFF7E7FCFFF73E
:1009100009FD42F21070FFF78FFF42F21070FFF7EF
:100920008BFF42F21070FFF787FFFFF7EFFCFFF736
:1009300011FD42F21070FFF77FFF42F21070FFF7D7
:100940007BFF42F21070FFF777FFB8E7BCD9C6DA39
:10095000CAB1BCE4D3E0B6EEB2BBD7E3A3A1A3A176
:10096000A3A12C0D0A0000009801214200002142A1
:1009700010B586B00446012144F20400FFF73CFDA7
:100980004FF40070ADF8140003208DF81600182005
:100990008DF8170005A91C48FFF7D9FB4FF48060BC
:1009A000ADF8140004208DF8170005A91648FFF7CC
:1009B000CEFB25208DF8000003208DF801008DF876
:1009C000020001208DF803006846FFF7D1FC019476
:1009D0000020ADF80800ADF80A00ADF80C00ADF845
:1009E00010000C20ADF80E0001A90848FFF76CFEBE
:1009F000012240F225510548FFF740FE012103483E
:100A0000FFF730FE06B010BD00080140003801407D
:100A1000300A00080000002034000000B40700087D
:100A2000640A00083400002004040000C407000821
:100A300000A24A04000000000000000001020304BC
:100A40000607080900000000000000000000000088
:100A5000000001020304010203040607080902045E
:040A60000608000084
:04000005080000ED02
:00000001FF
