:030000000209A052
:0C09A000787FE4F6D8FD75810B02099306
:0B09AC003F065B4F666D7D077F6F000C
:080800008E088F098D0A8B0B95
:100808007C037DE81209247590FE74AC2FF5827480
:10081800093EF583E493F5A07F017E00120979AEC5
:1008280008AF097C037DE8120924AE04AF057C00FB
:100838007D641209247590FD74AC2FF58274093E0D
:10084800F583E493F5A07F017E00120979AE08AF25
:10085800097C007D64120924AE04AF057C007D0A82
:100868001209247590FB74AC2FF58274093EF58348
:10087800E493F5A07F017E00120979AE08AF097CE8
:10088800007D0A120924AE04AF057590F774AC2FE9
:10089800F58274093EF583E493F5A07F017E00128A
:1008A8000979E50A75F00A847E007590EF24ACF5A5
:1008B80082EE3409F583E493F5A07F01120979E506
:1008C8000A75F00A84AFF07E007590DF74AC2FF5DE
:1008D80082EE3409F583E493F5A07F01120979E5E6
:1008E8000B75F00A847E007590BF24ACF582EE3457
:1008F80009F583E493F5A07F01120979E50B75F0FA
:100908000A84AFF07E0075907F74AC2FF582EE34C8
:0C09180009F583E493F5A07F0102097942
:0D0993007B137D077FE37E0712080080F3D1
:10097900EF1FAA0670011E4A600F7D7CEDD394001B
:090989007480948040EA1D80F3A3
:010992002242
:10092400BC000BBE0029EF8DF084FFADF022E4CCB7
:10093400F875F008EF2FFFEE33FEEC33FCEE9DEC80
:10094400984005FCEE9DFE0FD5F0E9E4CEFD22EDC6
:10095400F8F5F0EE8420D21CFEADF075F008EF2F10
:10096400FFED33FD4007985006D5F0F222C398FD01
:050974000FD5F0EA229E
:00000001FF
