:0300000002007586
:0C007500787FE4F6D8FD758108020003D6
:10000300E4F590F508AF087401A807088002C3332C
:10001300D8FC2590F4F5907FC87E0012005F6390B2
:10002300FF0508E508C3940840DB7590FF750808D1
:10003300E508D3940040C9E50814FF7401A8070834
:100043008002C333D8FCFFC3E5909FF4F5907FC8CB
:0C0053007E0012005F6390FF150880D44F
:10005F00EF1FAA0670011E4A600B7D7CEDD3940042
:05006F0040EE1D80F7CA
:010074002269
:00000001FF
