:10000E00438901758CFC758A1875A882D28CD290A2
:10001E00D291D292D293C294C295E509B4E811E579
:10002E0008B4030CD290C291D294D292C293D295BC
:10003E00E509B48811E508B4130CD290D291D2928E
:10004E00D293C294C295E509B47011E508B4170CA9
:10005E00C290D291D294C292D293D295E509B410A5
:10006E00B9E508B427B4D290D291D292D293C29469
:09007E00C295E4F508F50980A122
:03000B0002008769
:10008700C0E0758CFC758A180509E509700205083A
:03009700D0E03284
:0300000002009A61
:0C009A00787FE4F6D8FD75810902000EA5
:00000001FF
